:020000040800F2
:10000000F8FF0120712F0008DD2B0008E52B000808
:10001000ED2B0008F52B0008FD2B00080000000068
:10002000000000000000000000000000052C000897
:10003000132C000800000000212C00082F2C0008C1
:10004000C12F0008C12F0008C12F0008C12F0008D0
:10005000C12F0008C12F0008C12F0008C12F0008C0
:10006000C12F0008C12F0008C12F0008C12F0008B0
:100070003D2C0008C12F0008C12F0008C12F000827
:10008000C12F0008C12F0008C12F0008C12F000890
:10009000512C0008652C0008C12F0008C12F000852
:1000A000C12F0008C12F0008C12F0008C12F000870
:1000B000792C0008C12F0008C12F0008C12F0008AB
:1000C000C12F0008C12F0008C12F0008C12F000850
:1000D000C12F0008C12F0008912C0008C12F000873
:1000E000A92C0008C12F0008C12F0008C12F00084B
:1000F000C12F0008C12F0008C12F0008C12F000820
:10010000C12F0008C12F0008C12F0008C12F00080F
:10011000C12F0008C12F0008C12F0008C12F0008FF
:10012000C12F0008C12F0008C12F0008C12F0008EF
:10013000C12F0008C12F0008C12F0008C12F0008DF
:10014000C12F0008C12F0008C12F0008C12F0008CF
:10015000C12F0008C12F0008C12F0008C92C0008BA
:10016000C12F0008C12F0008C12F0008C12F0008AF
:10017000C12F0008C12F0008C12F00080000000097
:08018000C12F0008C12F000887
:1001900010B5054C237833B9044B13B10448AFF3C1
:1001A00000800123237010BDE0010020000000004A
:1001B0007C97010808B5034B1BB103490348AFF313
:1001C000008008BD00000000E40100207C970108C9
:1001D00001F0FF01102A2BDB10F0070F08D010F8F8
:1001E000013B013A8B422DD010F0070F42B3F6D1FC
:1001F000F0B441EA012141EA014122F007047FF015
:1002000000070023F0E80256083C85EA010586EA6B
:10021000010685FA47F5A3FA87F586FA47F6A5FAA7
:1002200087F68EB9EED1F0BC01F0FF0102F00702B3
:1002300032B110F8013B013A83EA010313B1F8D15E
:100240000020704701387047002D06BF354603383F
:10025000073815F0010F07D1013015F4807F02BF78
:10026000013015F4C03F0130F0BC0138704700BFC9
:10027000034613F8012B002AFBD1181A01387047E6
:1002800081F0004102E000BF83F0004330B54FEA47
:1002900041044FEA430594EA050F08BF90EA020FB4
:1002A0001FBF54EA000C55EA020C7FEA645C7FEA47
:1002B000655C00F0E2804FEA5454D4EB5555B8BF6A
:1002C0006D420CDD2C4480EA020281EA030382EADB
:1002D000000083EA010180EA020281EA0303362D6D
:1002E00088BF30BD11F0004F4FEA01314FF4801C40
:1002F0004CEA113102D0404261EB410113F0004F52
:100300004FEA03334CEA133302D0524263EB430308
:1003100094EA050F00F0A780A4F10104D5F1200EA6
:100320000DDB02FA0EFC22FA05F2801841F1000101
:1003300003FA0EF2801843FA05F359410EE0A5F1D5
:1003400020050EF1200E012A03FA0EFC28BF4CF006
:10035000020C43FA05F3C01851EBE37101F00045BC
:1003600007D54FF0000EDCF1000C7EEB00006EEBC9
:100370000101B1F5801F1BD3B1F5001F0CD3490853
:100380005FEA30004FEA3C0C04F101044FEA4452AA
:1003900012F5800F80F09A80BCF1004F08BF5FEA31
:1003A000500C50F1000041EB045141EA050130BD11
:1003B0005FEA4C0C404141EB0101013C28BFB1F523
:1003C000801FE9D291F0000F04BF01460020B1FA6E
:1003D00081F308BF2033A3F10B03B3F120020CDA41
:1003E0000C3208DD02F1140CC2F10C0201FA0CF01F
:1003F00021FA02F10CE002F11402D8BFC2F1200C84
:1004000001FA02F120FA0CFCDCBF41EA0C01904039
:10041000E41AA2BF01EB0451294330BD6FEA040482
:100420001F3C1CDA0C340EDC04F11404C4F120026D
:1004300020FA04F001FA02F340EA030021FA04F37F
:1004400045EA030130BDC4F10C04C4F1200220FAD6
:1004500002F001FA04F340EA0300294630BD21FA14
:1004600004F0294630BD94F0000F83F4801306BFDA
:1004700081F480110134013D4EE77FEA645C18BFCE
:100480007FEA655C29D094EA050F08BF90EA020F65
:1004900005D054EA000C04BF1946104630BD91EA5D
:1004A000030F1EBF0021002030BD5FEA545C05D160
:1004B0004000494128BF41F0004130BD14F580049F
:1004C0003CBF01F5801130BD01F0004545F0FE4113
:1004D00041F470014FF0000030BD7FEA645C1ABF48
:1004E000194610467FEA655C1CBF0B46024650EA7F
:1004F000013406BF52EA033591EA030F41F40021AB
:1005000030BD00BF90F0000F04BF0021704730B530
:100510004FF4806404F132044FF000054FF0000105
:1005200050E700BF90F0000F04BF0021704730B5C6
:100530004FF4806404F1320410F0004548BF40429B
:100540004FF000013EE700BF42004FEAE2014FEAF0
:1005500031014FEA02701FBF12F07F4393F07F4FCB
:1005600081F06051704732F07F4208BF704793F0CE
:100570007F4F04BF41F40021704730B54FF46074E1
:1005800001F0004521F000411CE700BF50EA0102E4
:1005900008BF704730B54FF000050AE050EA01028D
:1005A00008BF704730B511F0004502D5404261EBFD
:1005B00041014FF4806404F132045FEA915C3FF43E
:1005C000D8AE4FF003025FEADC0C18BF03325FEADB
:1005D000DC0C18BF033202EBDC02C2F1200300FA8C
:1005E00003FC20FA02F001FA03FE40EA0E0021FAB1
:1005F00002F11444BDE600BF70B54FF0FF0C4CF49F
:10060000E06C1CEA11541DBF1CEA135594EA0C0F50
:1006100095EA0C0F00F0DEF82C4481EA030621EA8B
:100620004C5123EA4C5350EA013518BF52EA0335C6
:1006300041F4801143F4801338D0A0FB02CE4FF078
:100640000005E1FB02E506F00042E0FB03E54FF0A8
:100650000006E1FB03569CF0000F18BF4EF0010EA0
:10066000A4F1FF04B6F5007F64F5407404D25FEA9C
:100670004E0E6D4146EB060642EAC62141EA55514F
:100680004FEAC52040EA5E504FEACE2EB4F1FD0C91
:1006900088BFBCF5E06F1ED8BEF1004F08BF5FEA0F
:1006A000500E50F1000041EB045170BD06F00046C1
:1006B00046EA010140EA020081EA0301B4EB5C046E
:1006C000C2BFD4EB0C0541EA045170BD41F4801166
:1006D0004FF0000E013C00F3AB8014F1360FDEBF8B
:1006E000002001F0004170BDC4F10004203C35DA67
:1006F0000C341BDC04F11404C4F1200500FA05F3EA
:1007000020FA04F001FA05F240EA020001F000428A
:1007100021F0004110EBD37021FA04F642EB060100
:100720005EEA430E08BF20EAD37070BDC4F10C042A
:10073000C4F1200500FA04F320FA05F001FA04F2EE
:1007400040EA020001F0004110EBD37041F10001DA
:100750005EEA430E08BF20EAD37070BDC4F12005E5
:1007600000FA05F24EEA020E20FA04F301FA05F24D
:1007700043EA020321FA04F001F0004121FA04F2F5
:1007800020EA020000EBD3705EEA430E08BF20EAC5
:10079000D37070BD94F0000F0FD101F000464000FF
:1007A00041EB010111F4801F08BF013CF7D041EA81
:1007B000060195F0000F18BF704703F00046520085
:1007C00043EB030313F4801F08BF013DF7D043EA56
:1007D0000603704794EA0C0F0CEA135518BF95EA0C
:1007E0000C0F0CD050EA410618BF52EA4306D1D193
:1007F00081EA030101F000414FF0000070BD50EAB2
:10080000410606BF1046194652EA430619D094EA3B
:100810000C0F02D150EA013613D195EA0C0F05D125
:1008200052EA03361CBF104619460AD181EA030179
:1008300001F0004141F0FE4141F470014FF0000031
:1008400070BD41F0FE4141F4780170BD70B54FF0CC
:10085000FF0C4CF4E06C1CEA11541DBF1CEA13554C
:1008600094EA0C0F95EA0C0F00F0A7F8A4EB05042E
:1008700081EA030E52EA03354FEA013100F0888025
:100880004FEA03334FF0805545EA131343EA1263EE
:100890004FEA022245EA111545EA10654FEA0026A3
:1008A0000EF000419D4208BF964244F1FD0404F55C
:1008B000407402D25B084FEA3202B61A65EB0305B8
:1008C0005B084FEA32024FF480104FF4002CB6EB75
:1008D000020E75EB030E22BFB61A754640EA0C00F5
:1008E0005B084FEA3202B6EB020E75EB030E22BF35
:1008F000B61A754640EA5C005B084FEA3202B6EB76
:10090000020E75EB030E22BFB61A754640EA9C0034
:100910005B084FEA3202B6EB020E75EB030E22BF04
:10092000B61A754640EADC0055EA060E18D04FEAC2
:10093000051545EA16754FEA06164FEAC30343EA62
:1009400052734FEAC2025FEA1C1CC0D111F4801F2F
:100950000BD141EA00014FF000004FF0004CB6E728
:1009600011F4801F04BF01430020B4F1FD0C88BFC7
:10097000BCF5E06F3FF6AFAEB5EB030C04BFB6EBD2
:10098000020C5FEA500C50F1000041EB045170BDC5
:100990000EF0004E4EEA113114EB5C04C2BFD4EBF2
:1009A0000C0541EA045170BD41F480114FF0000E76
:1009B000013C90E645EA060E8DE60CEA135594EAF2
:1009C0000C0F08BF95EA0C0F3FF43BAF94EA0C0FF5
:1009D0000AD150EA01347FF434AF95EA0C0F7FF46A
:1009E00025AF104619462CE795EA0C0F06D152EABE
:1009F00003353FF4FDAE1046194622E750EA4106A2
:100A000018BF52EA43067FF4C5AE50EA41047FF4B2
:100A10000DAF52EA43057FF4EBAE12E74FF0FF3C17
:100A200006E000BF4FF0010C02E000BF4FF0010CE8
:100A30004DF804CD4FEA410C7FEA6C5C4FEA430C61
:100A400018BF7FEA6C5C1BD001B050EA410C0CBFB0
:100A500052EA430C91EA030F02BF90EA020F002012
:100A6000704710F1000F91EA030F58BF994208BF79
:100A700090422CBFD8176FEAE37040F00100704736
:100A80004FEA410C7FEA6C5C02D150EA013C07D18D
:100A90004FEA430C7FEA6C5CD6D152EA033CD3D0D8
:100AA0005DF8040B704700BF8446104662468C46D2
:100AB0001946634600E000BF01B5FFF7B7FF002805
:100AC00048BF10F1000F01BD4DF808EDFFF7F4FF2E
:100AD0000CBF012000205DF808FB00BF4DF808EDB9
:100AE000FFF7EAFF34BF012000205DF808FB00BFDC
:100AF0004DF808EDFFF7E0FF94BF012000205DF8FE
:100B000008FB00BF4DF808EDFFF7CEFF94BF0120B2
:100B100000205DF808FB00BF4DF808EDFFF7C4FFAB
:100B200034BF012000205DF808FB00BF4FEA410CF4
:100B30007FEA6C5C02D150EA013C0AD14FEA430CD7
:100B40007FEA6C5C02D152EA033C02D14FF0000014
:100B500070474FF0010070474FEA410212F5001252
:100B600015D211D56FF47873B3EB625212D94FEAF4
:100B7000C12343F0004343EA505311F0004F23FADE
:100B800002F018BF404270474FF00000704750EA33
:100B9000013005D111F0004008BF6FF000407047F0
:100BA0004FF00000704700BF4FEA4102B2F1E0434E
:100BB00024BFB3F5001CDCF1FE5C0DD901F0004C44
:100BC0004FEAC0024CEA5070B2F1004F40EB830094
:100BD00008BF20F00100704711F0804F21D113F1C0
:100BE0003872BCBF01F00040704741F480114FEAF9
:100BF0005252C2F11802C2F1200C10FA0CF320FA82
:100C000002F018BF40F001004FEAC1234FEAD3239E
:100C100003FA0CFC40EA0C0023FA02F34FEA430308
:100C2000CCE77FEA625307D150EA01331EBF4FF091
:100C3000FE4040F44000704701F0004040F0FE40AC
:100C400040F40000704700BF53B94AB9002908BFFB
:100C500000281CBF4FF0FF314FF0FF3000F088B983
:100C6000ADF1080C6DE904CE00F006F8DDF804E003
:100C7000DDE9022304B070472DE9F047089D8E4658
:100C800004468846002B4AD18A42174662D9B2FAF6
:100C900082F64EB1C6F1200301FA06F820FA03F3FA
:100CA000B74043EA0808B4404FEA174E1FFA87FCE2
:100CB000B8FBFEF1230C0EFB118843EA084301FB4D
:100CC0000CF29A4209D9FB1801F1FF3080F0EA805A
:100CD0009A4240F2E78002393B449A1AA3B2B2FB2F
:100CE000FEF00EFB102243EA024300FB0CFC9C4585
:100CF00009D9FB1800F1FF3280F0D6809C4540F204
:100D0000D3803B44023840EA0140A3EB0C030021AE
:100D10001DB1F3400022C5E90032BDE8F0878B42E7
:100D200005D90DB1C5E9000100210846F5E7B3FA80
:100D300083F1002946D1734502D3824200F2058136
:100D4000841A6EEB030201209046002DE5D0C5E920
:100D50000048E2E7002A00F09080B2FA82F6002E06
:100D600040F0A4808A1A030C4FEA174E80B2BCB23E
:100D70000121B2FBFEFC0EFB1C2243EA024304FBF2
:100D80000CF29A4207D9FB180CF1FF3802D29A42B2
:100D900000F2E080C4469B1AB3FBFEF20EFB123356
:100DA00040EA034302FB04F49C4207D9FB1802F11A
:100DB000FF3002D29C4200F2CA8002461B1B42EA6C
:100DC0000C40A5E7C1F120068B4022FA06F71F432D
:100DD0000EFA01F420FA06F32EFA06FE4FEA17493E
:100DE000234300FA01F81FFA87FCBEFBF9F01C0C44
:100DF00009FB10EE44EA0E4400FB0CFEA64502FA85
:100E000001F209D93C1900F1FF3A80F09C80A64517
:100E100040F2998002383C44A4EB0E041FFA83FE92
:100E2000B4FBF9F309FB13444EEA044403FB0CFC46
:100E3000A44508D93C1903F1FF3E80F08280A44507
:100E40007FD9023B3C4443EA0040A4EB0C04A0FBE6
:100E500002EC64457346E14662D35FD05DB1B8EB06
:100E6000030264EB090404FA06F622FA01F31E43B6
:100E7000CC40C5E9006400214FE7B1FBF2FC010C56
:100E800041EA0E4180B240EA01423B4638463C46C8
:100E9000B846BE462026B1FBF7F1A2EB080241EAB4
:100EA0000C4166E7014618E710462CE7C6F1200220
:100EB0002EFA02F3B740B14020FA02F24FEA174E81
:100EC0000A43B3FBFEF8BCB20EFB1833110C41EA27
:100ED000034108FB04F9B04089454FEA104380B252
:100EE0003ED9791808F1FF3C01D289451FD8A1EB02
:100EF0000901B1FBFEF909FB04F80EFB191192B2CE
:100F000042EA0142424529D2BA1809F1FF31C4D25E
:100F10004245C2D2A9F102013A44BEE7F0459DD252
:100F2000BEEB02036CEB070C0138E14696E7A7EB3A
:100F300009094944A8F1020CB1FBFEF909FB04F8C8
:100F4000DBE773467FE7504666E70846FDE63B442D
:100F5000023A33E7ACF1020C3B441CE749469CE7FC
:100F6000A1EB0901C446B1FBFEF909FB04F8C4E793
:100F7000704700BF80B400AF034B1B681846BD46E6
:100F80005DF8047B704700BF0C02002080B400AF06
:100F9000044B1B680133034A136000BFBD465DF874
:100FA000047B70470C02002080B500AF024806F0B9
:100FB000A1FB00BF80BD00BF9803002080B400AF3C
:100FC000144B1B680133134A1360124B1B68632BCD
:100FD0001AD9104B00221A600F4B1B6801330E4ABE
:100FE00013600D4B1B68092B0ED90B4B00221A60A6
:100FF0000A4B1B680133094A1360084B1B683B2BE3
:1010000002D9064B00221A6000BFBD465DF8047B82
:10101000704700BF1402002000020020FC010020E5
:1010200080B400AF034B1B781846BD465DF8047BC7
:10103000704700BF0502002080B400AF184B1A783B
:10104000184B1A70184B1B68DAB2154B1A70154BF7
:101050001A78134B1B789A4203D0144B01221A7052
:1010600002E0124B00221A70114B1A78114B1A70C1
:10107000114B1B68DAB20E4B1A700E4B1A780C4BE0
:101080001B789A4203D00D4B01221A7002E00B4BE1
:1010900000221A7000BFBD465DF8047B704700BF98
:1010A0001102002010020020000200200402002093
:1010B0001302002012020020FC0100200502002083
:1010C00080B500AF074B1B68002B02D0054B1B6897
:1010D000984710F047FAFFF771FFFFF757FF00BF7F
:1010E00080BD00BF0802002080B500AF01224FF490
:1010F0008071024803F06EFE00BF80BD0004024014
:1011000080B500AF00224FF48071024803F062FE08
:1011100000BF80BD0004024080B500AF0122012164
:10112000024803F057FE00BF80BD00BF0010024020
:1011300080B500AF00220121024803F04BFE00BF42
:1011400080BD00BF0010024080B500AFFFF7E4FF94
:10115000012000F0C5FAFFF7EBFF012000F0C0FA14
:1011600000BF80BD80B500AF01224FF4007102487E
:1011700003F030FE00BF80BD0004024080B500AF28
:1011800000224FF40071024803F024FE00BF80BD2E
:101190000004024080B500AFFFF7F0FFFFF7C8FF83
:1011A000FFF7AEFF00BF80BD80B500AFFFF7F2FFD5
:1011B00000BF80BD80B586B000AF4FF400737B6088
:1011C0000223FB6003233B610023BB603B1D1946E8
:1011D000034803F04BFC00BF1837BD4680BD00BF7D
:1011E0000004024080B586B000AF4FF400737B600E
:1011F00003233B610123BB603B1D1946034803F0F9
:1012000035FC00BF1837BD4680BD00BF000402405A
:1012100080B584B000AF0346FB71FFF765FF002384
:10122000FB7311E0FB7903F00103002B02D0FFF701
:1012300099FF01E0FFF7A2FFFFF786FFFB795B084C
:10124000FB71FB7B0133FB73FB7B072BEAD900BFF0
:1012500000BF1037BD4680BD80B584B000AF0346E7
:101260000A46FB711346BB71FB791846FFF7D0FFA6
:101270000023FB7311E0BB7903F00103002B02D0C4
:10128000FFF770FF01E0FFF779FFFFF75DFFBB7924
:101290005B08BB71FB7B0133FB73FB7B072BEAD93C
:1012A000FFF778FF00BF1037BD4680BD80B500AFA7
:1012B0004FF40071024803F075FD0346184680BDE7
:1012C0000004024080B584B000AF0346FB710023E8
:1012D000BB73FB7943F00103FB71FB791846FFF701
:1012E00097FFFFF767FF0023FB7313E0FFF7DEFFB5
:1012F0000346012B03D1BB7B63F07F03BB73FFF776
:1013000023FFFB7B072B02D0BB7B5B08BB73FB7B04
:101310000133FB73FB7B072BE8D9FFF763FFFFF774
:1013200039FFBB7B18461037BD4680BD90B585B0F0
:1013300000AF78600023FB737B68002B00F0B08067
:101340007B68DB79002B01D13F2300E01F23FB7377
:101350008220FFF7B7FF03461B09DBB21A46920053
:1013600013445B00DCB28220FFF7ACFF034603F0BE
:101370000F03DBB22344DAB27B689A708A20FFF74E
:10138000A1FF03461B09DBB21A46920013445B001F
:10139000DCB28A20FFF796FF034603F00F03DBB2AF
:1013A0002344DAB27B681A708C20FFF78BFF034668
:1013B0001B09DBB21A46920013445B00DCB28C209E
:1013C000FFF780FF034603F00F03DBB22344DAB2DA
:1013D0007B68DA708620FFF775FF03461B09DBB2D6
:1013E0001A46920013445B00DCB28620FFF76AFFC6
:1013F000034603F00F03DBB22344DAB27B685A7171
:101400008820FFF75FFF03461B09DBB21A469200F4
:1014100013445B00DCB28820FFF754FF034603F05F
:101420000F03DBB22344DAB27B689A718020FFF7A6
:1014300049FF034603F07F03002B00DA0F331B1133
:10144000DBB21A46920013445B00DCB28020FFF747
:1014500039FF034603F00F03DBB22344DAB27B68A3
:101460005A708420FFF72EFF03461A46FB7B134079
:10147000DBB21B09DBB21A46920013445B00DCB2FC
:101480008420FFF71FFF03461A46FB7B1340DBB2A5
:1014900003F00F03DBB22344DAB27B681A7100E079
:1014A00000BF1437BD4690BD80B584B000AF7860F2
:1014B0000023FB737B68002B00F0DC807B68DB790A
:1014C000002B0BD0FB7B63F07F03FB737B681B7AE5
:1014D000012B03D1FB7B43F02003FB7300218E2003
:1014E000FFF7BAFE7B689B78644AA2FB0323DB0804
:1014F000DBB21B01D8B27B689A78604BA3FB021366
:10150000D9080B469B000B445B00D31ADBB20344A3
:10151000DBB219468220FFF79FFE7B685B78574A53
:10152000A2FB0323DB08DBB21B01D8B27B685A782D
:10153000524BA3FB0213D9080B469B000B445B00E4
:10154000D31ADBB20344DBB219468020FFF784FED6
:101550007B681B78494AA2FB0323DB08DBB21B0133
:10156000D8B27B681A78454BA3FB0213D9080B4607
:101570009B000B445B00D31ADBB20344DBB2194679
:101580008A20FFF769FE7B68DB783C4AA2FB0323D5
:10159000DB08DBB21B01D8B27B68DA78374BA3FBE0
:1015A0000213D9080B469B000B445B00D31ADBB235
:1015B0000344DBB219468C20FFF74EFE7B685B7953
:1015C0002E4AA2FB0323DB08DBB21B01D8B27B68E7
:1015D0005A792A4BA3FB0213D9080B469B000B44F4
:1015E0005B00D31ADBB20344DBB219468620FFF757
:1015F00033FE7B689B79214AA2FB0323DB08DBB225
:101600001B01D8B27B689A791C4BA3FB0213D90843
:101610000B469B000B445B00D31ADBB20344DBB2E6
:1016200019468820FFF718FE7B681B79134AA2FB36
:101630000323DB08DBB21B01D8B27B681A790F4B9E
:10164000A3FB0213D9080B469B000B445B00D31A83
:10165000DBB20344DBB25AB297F90F3013435BB2EB
:10166000DBB219468420FFF7F7FD80218E20FFF7BB
:10167000F3FD00E000BF1037BD4680BDCDCCCCCC23
:1016800080B400AF144BDB68134A43F08073D3601F
:10169000124B1B68114A43F0010313600F4B0022E9
:1016A0005A600D4BDB6803F08073002B0ED10A4BA0
:1016B000DB68094A43F08073D360084B00225A600C
:1016C000064B1B68054A43F00103136000BFBD468B
:1016D0005DF8047B704700BFF0ED00E0001000E013
:1016E00080B485B000AF78600D4B5B68FB600D4B3C
:1016F0001B680D4AA2FB03239A0C7B6802FB03F3D1
:10170000BB6000BF064B5A68FB68D31ABA689A429E
:10171000F8D800BF00BF1437BD465DF8047B7047A2
:10172000001000E00000002083DE1B4380B582B083
:1017300000AF7860786801F0B7FC00BF0837BD469D
:1017400080BD80B487B000AFF860B9607A600023D4
:101750007B610AE0BA687B691A44F9687B690B44CB
:1017600012781A707B6901337B617A697B689A42CF
:10177000F0D300BF00BF1C37BD465DF8047B704747
:1017800080B487B000AFF860B9601346FB710023E6
:10179000BB750023FB751BE0FB7DBA6813441A7808
:1017A000BB7DF9680B441B789A420CD1BB7D013399
:1017B000BB75BB7DFA6813441B78002B05D1FB7DFC
:1017C0000133DBB20FE00023BB75FB7D0133FB75FA
:1017D000FB7DBA6813441B78002B03D0FA7DFB799C
:1017E0009A42D9D3002318461C37BD465DF8047BC6
:1017F000704780B487B000AF78600B467B804FF6AF
:10180000FF73FB820023BB8224E0BB8A7A68134407
:101810001B781A46FB8A5340FB820123FB7413E0BA
:10182000FB8A03F00103FB81FB8A5B08FB82FB89D7
:10183000002B06D0FB8A83F4BF4383F07E03DB4397
:10184000FB82FB7C0133FB74FB7C082BE8D9BB8A51
:101850000133BB82BA8A7B889A42D6D3FB8A1B0AA1
:101860003B82B7F916301B021AB2B7F91030134396
:101870001BB2FB82FB8A18461C37BD465DF8047B11
:10188000704780B485B000AF786039600023FB7387
:101890000023BB6009E07A68BB6813441A78FB7BBD
:1018A0001344FB73BB680133BB60BA683B689A4260
:1018B000F1D3FB7BDB43DBB218461437BD465DF842
:1018C000047B704780B487B000AFF860B9601346FE
:1018D000FB710023FB7500233B6109E0FA683B695B
:1018E00013441A78FB7D1344FB753B6901333B615C
:1018F0003A69BB689A42F1D3FA79FB7DD31ADBB21D
:1019000018461C37BD465DF8047B704780B584B02F
:1019100000AFF860B9607A603B60FB681B683A68AA
:10192000D21A7B689A4201DA05230DE0FB681B6836
:101930007A68B9681846FFF704FFFB681A687B6885
:101940001A44FB681A60002318461037BD4680BD54
:1019500080B584B000AFF8600B467A60FB72FB681C
:101960001B687A68D31A002B01DC05230DE0FB68A5
:101970001B6807F10B0101221846FFF7E2FEFB6826
:101980001B685A1CFB681A60002318461037BD46B6
:1019900080BD80B485B000AFF8600B467A607B8173
:1019A000FB681B687A68D31A012B01DC052316E05B
:1019B000FB681B687A89D2B21A70FB681B685A1CD4
:1019C000FB681A607B891B0A9AB2FB681B68D2B25B
:1019D0001A70FB681B685A1CFB681A6000231846C3
:1019E0001437BD465DF8047B704780B584B000AF06
:1019F000F860B9607A60FB681B687A68D31A032BB9
:101A000001DC05230DE0FB681B6807F108010422D7
:101A10001846FFF796FEFB681B681A1DFB681A60E4
:101A2000002318461037BD4680BD000080B500AFCA
:101A300001F0C8FA00F06AF801F02EFAC82001F0AF
:101A400033FBFFF71DFE00F01DFB00F0FBFA00F07A
:101A50001BF900F0CDF900F07BF900F093F900F0EC
:101A6000FDF900F0C5FA00F06FFA00F043FA00F05B
:101A7000B9F800F093FA00F03DF922480DF078FB38
:101A80000EF016FE0FF0F8FCFFF78EFA13F0F2F8E6
:101A900013F07CF800F09AFC08F0ECFB12F0E6FA88
:101AA00011F07CF9184807F0FBFA174808F0C6FE59
:101AB000154801F059FF0346002B01D000F080FCCF
:101AC0000CF040FE14F00EF800F042F901F046FA76
:101AD000FFF7B2FA00F0F4FC11F0B2F912F010FBCB
:101AE0000BF0D4FE0DF06EFB14F08EF90DF0E6FD58
:101AF0000CF064FB01F0F4F908F06CFC0FF088FDC9
:101B000000BFE3E7880200206002002080B594B0A7
:101B100000AF07F1200330220021184615F00FFE18
:101B200007F10C0300221A605A609A60DA601A61A9
:101B30000023BB60294B1B6C284A43F0805313647D
:101B4000264B1B6C03F08053BB60BB6800237B609B
:101B5000234B1B68224A43F480431360204B1B68CD
:101B600003F480437B607B680A233B620123FB62B2
:101B700010233B6301237B630223BB630023FB63CE
:101B800008233B64A8237B640223BB640723FB6414
:101B900007F12003184604F0F5FA0346002B01D0A4
:101BA00000F00EFC0F23FB6002233B6100237B61EE
:101BB0004FF4A053BB614FF48053FB6107F10C035A
:101BC0000521184604F056FD0346002B01D000F015
:101BD000F7FB00BF5037BD4680BD00BF0038024054
:101BE0000070004080B584B000AF3B4600221A6010
:101BF0005A609A60DA60214B214A1A601F4B4FF4F9
:101C000080325A601D4B00229A601C4B00221A61E0
:101C10001A4B00221A76194B002283F82020174B0A
:101C20000022DA62154B174A9A62144B0022DA60DE
:101C3000124B0122DA61114B002283F830200F4B46
:101C400001225A610D4801F053FA0346002B01D0DE
:101C500000F0B6FB00233B6001237B600023BB60E8
:101C60003B461946054801F087FA0346002B01D090
:101C700000F0A6FB00BF1037BD4680BD1802002053
:101C8000002001400100000F80B500AF174B184A3B
:101C90001A60164B0C225A60144B00229A60134BA8
:101CA0000022DA60114B4FF420221A610F4B4FF4DF
:101CB00080125A610D4B00221A760C4B01225A7683
:101CC0000A4B00229A76094B0022DA76074B002253
:101CD0001A77064B00225A77044801F06BFC034642
:101CE000002B01D000F06CFB00BF80BD6002002023
:101CF0000064004080B500AF124B134A1A60114BCC
:101D0000124A5A600F4B00229A600E4B0022DA6092
:101D10000C4B4FF480421A610A4B00225A61094B66
:101D200000229A61074B0022DA61064B00221A62F8
:101D3000044803F081F80346002B01D000F040FB7B
:101D400000BF80BD88020020005C0040A08601002A
:101D500080B500AF094B0A4A1A60084B06225A6048
:101D6000064B40F2D3129A60044804F0B7F90346D8
:101D7000002B01D000F024FB00BF80BDDC0200205E
:101D80000030004080B500AF174B184A1A60164B60
:101D90004FF482725A60144B00229A60124B002258
:101DA000DA60114B00221A610F4B00225A610E4B70
:101DB0004FF400729A610C4B2022DA610A4B002228
:101DC0001A62094B00225A62074B00229A62064BA4
:101DD0000A22DA62044804F06BFE0346002B01D0AD
:101DE00000F0EEFA00BF80BDE802002000300140A4
:101DF00080B500AF174B184A1A60164B4FF4827229
:101E00005A60144B00229A60124B0022DA60114B88
:101E100000221A610F4B00225A610E4B4FF40072E0
:101E20009A610C4B3022DA610A4B00221A62094B8C
:101E300000225A62074B00229A62064B0A22DA629B
:101E4000044804F035FE0346002B01D000F0B8FA38
:101E500000BF80BD400300200038004080B586B040
:101E600000AF07F1080300221A605A609A60DA6036
:101E70003B4600221A605A601D4B4FF080421A60A8
:101E80001B4B53225A601A4B00229A60184B40F2A7
:101E9000E732DA60164B00221A61154B00229A6174
:101EA000134805F0D7FB0346002B01D000F088FA59
:101EB0004FF48053BB6007F1080319460C4805F046
:101EC00079FD0346002B01D000F07AFA00233B6035
:101ED00000237B603B461946054805F0A5FF0346F5
:101EE000002B01D000F06CFA00BF1837BD4680BD52
:101EF0009803002080B500AF114B124A1A60104BB6
:101F00004FF4E1325A600E4B00229A600C4B0022D3
:101F1000DA600B4B00221A61094B0C225A61084B04
:101F200000229A61064B0022DA61054806F00CF89F
:101F30000346002B01D000F043FA00BF80BD00BF74
:101F4000E00300200010014080B500AF114B124AA1
:101F50001A60104B4FF416525A600E4B00229A60D2
:101F60000C4B0022DA600B4B00221A61094B0C2249
:101F70005A61084B00229A61064B0022DA6105483B
:101F800005F0E2FF0346002B01D000F019FA00BF74
:101F900080BD00BF280400200044004080B500AF91
:101FA000114B124A1A60104B4FF4E1325A600E4B3B
:101FB00000229A600C4B0022DA600B4B00221A615F
:101FC000094B0C225A61084B00229A61064B0022F1
:101FD000DA61054805F0B8FF0346002B01D000F098
:101FE000EFF900BF80BD00BF700400200048004032
:101FF00080B500AF114B124A1A60104B4FF4E1321A
:102000005A600E4B00229A600C4B0022DA600B4B98
:1020100000221A61094B0C225A61084B00229A6176
:10202000064B0022DA61054805F08EFF0346002BBF
:1020300001D000F0C5F900BF80BD00BFB80400208A
:102040000014014080B582B000AF00237B600C4BD0
:102050001B6B0B4A43F400131363094B1B6B03F414
:1020600000137B607B68002200210C2002F047F9FE
:102070000C2002F060F900BF0837BD4680BD00BFEC
:102080000038024080B58AB000AF07F11403002287
:102090001A605A609A60DA601A6100233B61914BC2
:1020A0001B6B904A43F0100313638E4B1B6B03F0C2
:1020B00010033B613B690023FB608A4B1B6B894A21
:1020C00043F001031363874B1B6B03F00103FB60B9
:1020D000FB680023BB60834B1B6B824A43F0040305
:1020E0001363804B1B6B03F00403BB60BB680023CE
:1020F0007B607C4B1B6B7B4A43F002031363794B81
:102100001B6B03F002037B607B6800233B60754B15
:102110001B6B744A43F008031363724B1B6B03F091
:1021200008033B603B6800224D216F4802F052FEDD
:10213000002210216D4802F04DFE002230216C4833
:1021400002F048FE002241F2C3316A4802F042FE2A
:1021500000224FF40741684802F03CFE4C237B61AB
:102160000123BB610023FB6100233B6207F11403E1
:1021700019465D4802F07AFC22237B610023BB6193
:102180000123FB6107F114031946574802F06EFC66
:1021900010237B610123BB610023FB6103233B62AE
:1021A00007F114031946514802F060FC10237B61CB
:1021B0000123BB610023FB6103233B6207F114038E
:1021C00019464B4802F052FC20237B610123BB617E
:1021D0000023FB6100233B6207F1140319464448C6
:1021E00002F044FC03237B610123BB610023FB61FC
:1021F00000233B6207F1140319463E4802F036FC07
:102200004FF498537B610123BB610023FB610323DF
:102210003B6207F114031946364802F027FC4FF4DD
:1022200040737B610123BB610023FB6103233B629D
:1022300007F114031946304802F018FC4FF480638C
:102240007B610123BB610023FB6100233B6207F13B
:1022500014031946284802F009FC4FF460537B61CF
:102260004FF44413BB610023FB6107F114031946CB
:10227000214802F0FBFB4FF400437B610123BB616B
:102280000023FB6102233B6207F1140319461A483D
:1022900002F0ECFBC0237B610123BB610123FB61E6
:1022A00003233B6207F114031946124802F0DEFBD8
:1022B00001237B610123BB610023FB6102233B629D
:1022C00007F114031946084802F0D0FB002201214F
:1022D000282002F014F8282002F02DF800BF28373B
:1022E000BD4680BD003802400010024000000240A0
:1022F0000008024000040240000C024080B584B097
:1023000000AF0346FB8000F0C3FEF860FB88B3F526
:10231000005F09D0B3F5005F3FDCB3F5006F29D053
:10232000B3F5805F13D038E04FF400511D4802F040
:1023300039FD0346002B06D11B4AFB6813601B4B7B
:1023400001221A702AE0194B00221A7026E04FF47D
:102350008051144802F026FD0346002B06D1144A92
:10236000FB681360134B01221A7017E0114B002217
:102370001A7013E04FF400610A4802F013FD03469F
:10238000002B06D10C4AFB6813600C4B01221A701B
:1023900004E00A4B00221A7000E000BF00BF1037B3
:1023A000BD4680BD000C0240440700203F070020CE
:1023B00048070020400700204C070020410700206C
:1023C00080B400AF72B600BF00BFFDE780B500AFBC
:1023D000FEF7EAFE00BF80BD80B485B000AF786034
:1023E0007B685B79002B13D17B681B79002B0FD1A5
:1023F0007B68DB78002B0BD17B689B78002B07D1A7
:102400007B685B78002B03D17B681B78002B01D0A5
:10241000012300E00023FB73FB7B002B05D07B68CE
:102420001B783B2B01D8012300E00023FB73FB7BCF
:10243000002B05D07B685B783B2B01D8012300E0A3
:102440000023FB73FB7B002B05D07B689B78172B4D
:1024500001D8012300E00023FB73FB7B002B05D098
:102460007B68DB781F2B01D8012300E00023FB737E
:10247000FB7B002B05D07B681B79002B01D001234F
:1024800000E00023FB73FB7B002B05D07B681B79EE
:102490000C2B01D8012300E00023FB73FB7B002BF6
:1024A00005D07B685B79002B01D0012300E000237D
:1024B000FB73FB7B18461437BD465DF8047B704701
:1024C00080B584B000AFFEF755FD0246134B1B6884
:1024D000D31AB3F5967F1DDBFEF74CFD03460F4A7A
:1024E00013603B1D1846FEF721FFFA790C4B5A7119
:1024F000BA7A0B4B1A717A7A094BDA703A7A084B2E
:102500009A70BA79064B5A707A79054B1A703A79F3
:10251000044B1A7000BF1037BD4680BD680500200F
:10252000600500206605002090B587B000AF044626
:10253000084611461A462346FB710346BB710B46FB
:102540007B7113463B7100233B733B793B7497F8D7
:102550002830BB7397F82C307B737B797B74BB7905
:10256000BB74FB79FB7300233B750023FB7407F1FD
:102570000C031846FEF798FF00BF1C37BD4690BD00
:1025800090B587B000AF0446084611461A46234668
:10259000FB710346BB710B467B7113463B7197F889
:1025A00030303B733B793B7497F82830BB7397F816
:1025B0002C307B737B797B74BB79BB74FB79FB73A9
:1025C00000233B750023FB7407F10C031846FEF74C
:1025D0006BFF00BF1C37BD4690BD000080B483B0C8
:1025E00000AF00237B60104B5B6C0F4A43F48043C9
:1025F00053640D4B5B6C03F480437B607B6800236A
:102600003B60094B1B6C084A43F080531364064B34
:102610001B6C03F080533B603B6800BF0C37BD462A
:102620005DF8047B704700BF0038024080B58AB077
:1026300000AF786007F1140300221A605A609A60B4
:10264000DA601A617B681B68174A934227D100231E
:102650003B61164B5B6C154A43F480735364134B18
:102660005B6C03F480733B613B690023FB600F4BA1
:102670001B6B0E4A43F0010313630C4B1B6B03F0FF
:102680000103FB60FB6801237B610323BB61002323
:10269000FB6107F114031946054802F0E7F900BF92
:1026A0002837BD4680BD00BF0020014000380240F1
:1026B0000000024080B58AB000AF786007F11403D3
:1026C00000221A605A609A60DA601A617B681B689F
:1026D000214A93423BD100233B61204B1B6C1F4A94
:1026E00043F0007313641D4B1B6C03F000733B61DC
:1026F0003B690023FB60194B1B6B184A43F008032E
:102700001363164B1B6B03F00803FB60FB6803238A
:102710007B610223BB610023FB6103233B6209232E
:102720007B6207F1140319460D4802F09FF900225D
:102730000021142001F0E3FD142001F0FCFD002233
:102740000021152001F0DBFD152001F0F4FD00BF94
:102750002837BD4680BD00BF0064004000380240FD
:10276000000C024080B58AB000AF786007F1140316
:1027700000221A605A609A60DA601A617B681B68EE
:10278000294A93424BD100233B61284B1B6B274ABC
:1027900043F004031363254B1B6B03F004033B61FD
:1027A0003B690023FB60214B1B6B204A43F0010374
:1027B00013631E4B1B6B03F00103FB60FB684FF4BC
:1027C00000737B611223BB610023FB6103233B6227
:1027D00004237B6207F114031946154802F046F9F9
:1027E0004FF480737B611223BB610023FB610323E1
:1027F0003B6204237B6207F1140319460D4802F083
:1028000035F90023BB60094B1B6C084A43F40003F5
:102810001364064B1B6C03F40003BB60BB6800BF72
:102820002837BD4680BD00BF005C00400038024034
:10283000000802400000024080B58CB000AF786014
:1028400007F11C0300221A605A609A60DA601A616C
:102850007B681B68324A93422CD10023BB61314B09
:102860005B6C304A43F4805353642E4B5B6C03F42F
:102870008053BB61BB6900237B612A4B1B6B294AD8
:1028800043F001031363274B1B6B03F001037B61D0
:102890007B69E023FB6102233B6200237B6203230D
:1028A000BB620523FB6207F11C0319461E4802F0B8
:1028B000DDF831E07B681B681C4A93422CD1002371
:1028C0003B61184B1B6C174A43F480431364154B50
:1028D0001B6C03F480433B613B690023FB60114B9D
:1028E0001B6B104A43F0020313630E4B1B6B03F088
:1028F0000203FB60FB684FF42043FB6102233B6251
:1029000000237B620323BB620523FB6207F11C03E8
:102910001946074802F0AAF800BF3037BD4680BD0F
:102920000030014000380240000002400038004002
:102930000004024080B584B000AF78607B681B68FB
:10294000B3F1804F15D10023FB600C4B1B6C0B4A7D
:1029500043F001031364094B1B6C03F00103FB609C
:10296000FB68002200211C2001F0C9FC1C2001F0A2
:10297000E2FC00BF1037BD4680BD00BF00380240FA
:1029800080B590B000AF786007F12C0300221A6088
:102990005A609A60DA601A617B681B68844A9342C5
:1029A0002DD10023BB62834B5B6C824A43F0100342
:1029B0005364804B5B6C03F01003BB62BB6A002363
:1029C0007B627C4B1B6B7B4A43F001031363794BA7
:1029D0001B6B03F001037B627B6A4FF4C063FB62F5
:1029E00002233B6300237B630323BB630723FB6357
:1029F00007F12C031946704802F038F8D4E07B68E0
:102A00001B686E4A934234D100233B62694B1B6CB6
:102A1000684A43F400331364664B1B6C03F40033C1
:102A20003B623B6A0023FB61624B1B6B614A43F0D4
:102A3000080313635F4B1B6B03F00803FB61FB6927
:102A40006023FB6202233B6300237B630323BB639E
:102A50000723FB6307F12C031946594802F006F8D7
:102A600000220021262001F04AFC262001F063FC10
:102A70009AE07B681B68534A93425CD10023BB6198
:102A80004C4B1B6C4B4A43F480231364494B1B6C27
:102A900003F48023BB61BB6900237B61454B1B6B47
:102AA000444A43F002031363424B1B6B03F00203DF
:102AB0007B617B694FF44063FB6202233B6300232D
:102AC0007B630323BB630723FB6307F12C031946D6
:102AD0003D4801F0CBFF3D4B3D4A1A603B4B4FF068
:102AE00000625A60394B00229A60384B0022DA604B
:102AF000364B4FF480621A61344B00225A61334BDB
:102B000000229A61314B4FF48072DA612F4B002220
:102B10001A622E4B00225A622C4801F02BFC03460D
:102B2000002B01D0FFF74CFC7B68284ADA63274A68
:102B30007B68936338E07B681B68264A934233D1F5
:102B400000233B611B4B5B6C1A4A43F02003536428
:102B5000184B5B6C03F020033B613B690023FB6077
:102B6000144B1B6B134A43F004031363114B1B6B91
:102B700003F00403FB60FB68C023FB6202233B639A
:102B800000237B630323BB630823FB6307F12C0350
:102B90001946114801F06AFF00220021472001F088
:102BA000AEFB472001F0C7FB00BF4037BD4680BDEC
:102BB0000010014000380240000002400044004084
:102BC000000C0240004800400004024000050020C4
:102BD00028600240001401400008024080B400AFA9
:102BE00000BFFDE780B400AF00BFFDE780B400AFD9
:102BF00000BFFDE780B400AF00BFFDE780B400AFC9
:102C000000BFFDE780B400AF00BFBD465DF8047BA8
:102C1000704780B400AF00BFBD465DF8047B7047CD
:102C200080B400AF00BFBD465DF8047B704780B53F
:102C300000AF00F019FA00BF80BD000080B500AF02
:102C4000024801F0D7FC00BF80BD00BF0005002096
:102C500080B500AF024801F03BF800BF80BD00BF67
:102C60006002002080B500AF024801F031F800BFDB
:102C700080BD00BF6002002080B500AF034804F0B3
:102C8000A9FDFEF71DFA00BF80BD00BF980300201C
:102C900080B500AF0DF07CFD024805F0A5F900BF3E
:102CA00080BD00BF2804002080B500AF4FF4006055
:102CB00002F0AAF84FF4805002F0A6F84FF400504A
:102CC00002F0A2F800BF80BD80B500AF10F07EFA20
:102CD000024805F089F900BF80BD00BFB80400209C
:102CE00080B400AF01231846BD465DF8047B7047F1
:102CF00080B582B000AF7860396014F083FD034680
:102D000016221A604FF0FF3318460837BD4680BDC3
:102D100080B582B000AF78604FF0FF317868FFF780
:102D2000E7FF00BFFDE780B586B000AFF860B9608F
:102D30007A6000237B610AE0AFF300800146BB6844
:102D40005A1CBA60CAB21A707B6901337B617A6916
:102D50007B689A42F0DB7B6818461837BD4680BD19
:102D600080B586B000AFF860B9607A6000237B61FF
:102D700009E0BB685A1CBA601B781846AFF30080A4
:102D80007B6901337B617A697B689A42F1DB7B68FE
:102D900018461837BD4680BD80B483B000AF786058
:102DA0004FF0FF3318460C37BD465DF8047B704783
:102DB00080B483B000AF786039603B684FF4005254
:102DC0005A60002318460C37BD465DF8047B7047F7
:102DD00080B483B000AF7860012318460C37BD463D
:102DE0005DF8047B704780B485B000AFF860B960CF
:102DF0007A60002318461437BD465DF8047B70479F
:102E000080B586B000AF7860144A154BD31A7B6149
:102E10007B693B61134B1B68002B02D1114B124A9B
:102E20001A60104B1A687B6813443A699A4207D2B9
:102E300014F0E8FC03460C221A604FF0FF3309E05F
:102E4000084B1B68FB60074B1A687B681344054AF4
:102E50001360FB6818461837BD4680BDF8FF012097
:102E6000000400006C0500201824002080B400AF8E
:102E7000084BD3F88830074A43F47003C2F888300F
:102E8000044B4FF000629A6000BFBD465DF8047BC2
:102E9000704700BF00ED00E080B400AF034B044A70
:102EA0001A6000BFBD465DF8047B704778050020BE
:102EB000F8FF012080B582B000AF0346FB71064ADF
:102EC000FB791370FEF756F80346044A136000BFFF
:102ED0000837BD4680BD00BF700500207405002086
:102EE00080B582B000AF184B1B78002B22D04FF476
:102EF0007A737B60144B1B78022B02D14FF4FA6378
:102F00007B60FEF737F80246104B1B68D31A7A68CD
:102F10009A4214DC0C4B1B78012B04D10C4B1B6820
:102F20000C4A1A6003E00A4B1B680B4A1A6001F056
:102F300010FA04E0FEF71EF80346044A136000BFCF
:102F40000837BD4680BD00BF700500207405002015
:102F500078050020EFBEADDEFFBEC81E80B500AF15
:102F6000024803F0FFF800BF80BD00BFDC02002074
:102F7000DFF834D0FFF77AFF0C480D490D4A0023E3
:102F800002E0D458C4500433C4188C42F9D30A4A1E
:102F90000A4C002301E013600432A242FBD314F078
:102FA00037FCFEF743FD7047F8FF012000000020CA
:102FB000E001002030AD0108E001002018240020CD
:102FC000FEE7000080B500AF0E4B1B680D4A43F4CE
:102FD000007313600B4B1B680A4A43F48063136051
:102FE000084B1B68074A43F480731360032001F009
:102FF0007BF90F2000F008F8FFF7F0FA00231846DD
:1030000080BD00BF003C024080B582B000AF786058
:10301000124B1A68124B1B7819464FF47A73B3FBA4
:10302000F1F3B2FBF3F3184601F097F90346002BD6
:1030300001D001230EE07B680F2B0AD800227968AB
:103040004FF0FF3001F05BF9064A7B681360002304
:1030500000E0012318460837BD4680BD000000206F
:10306000080000200400002080B400AF064B1B784D
:103070001A46064B1B681344044A136000BFBD4642
:103080005DF8047B704700BF080000207C0500202D
:1030900080B400AF034B1B681846BD465DF8047B47
:1030A000704700BF7C05002080B584B000AF786019
:1030B000FFF7EEFFB8607B68FB60FB68B3F1FF3F92
:1030C00005D00A4B1B781A46FB681344FB6000BF0F
:1030D000FFF7DEFF0246BB68D31AFA689A42F7D8B8
:1030E00000BF00BF1037BD4680BD00BF08000020F4
:1030F00080B584B000AF78600023FB737B68002B41
:1031000001D1012333E07B681B6C002B09D1786867
:10311000FFF78CFA7B6800225A647B68002283F8F0
:103120003C207B681B6C03F01003002B18D17B68DC
:103130001B6C23F4885323F0020343F002027B68E4
:103140001A64786800F03AF97B6800225A647B6858
:103150001B6C23F0030343F001027B681A6401E057
:103160000123FB737B68002283F83C20FB7B18461D
:103170001037BD4680BD000080B485B000AF7860D8
:1031800039600023BB607B6893F83C30012B01D190
:10319000022305E17B68012283F83C203B681B6821
:1031A000092B25D97B681B68D9683B681B689BB2D3
:1031B0001A4613465B0013441E3B072202FA03F330
:1031C000DA437B681B680A40DA607B681B68D96851
:1031D0003B689A683B681B689BB2184603465B00D5
:1031E00003441E3B9A407B681B680A43DA6022E076
:1031F0007B681B6819693B681B689BB21A461346BB
:103200005B001344072202FA03F3DA437B681B686E
:103210000A401A617B681B6819693B689A683B68B9
:103220001B689BB2184603465B0003449A407B68C8
:103230001B680A431A613B685B68062B24D87B68CD
:103240001B68596B3B685A6813469B001344053B47
:103250001F2202FA03F3DA437B681B680A405A63B1
:103260007B681B68596B3B681B689BB218463B68C0
:103270005A6813469B001344053B00FA03F27B682F
:103280001B680A435A634CE03B685B680C2B24D8EC
:103290007B681B68196B3B685A6813469B00134494
:1032A000233B1F2202FA03F3DA437B681B680A40C0
:1032B0001A637B681B68196B3B681B689BB21846D6
:1032C0003B685A6813469B001344233B00FA03F201
:1032D0007B681B680A431A6323E07B681B68D96A12
:1032E0003B685A6813469B001344413B1F2202FA75
:1032F00003F3DA437B681B680A40DA627B681B6869
:10330000D96A3B681B689BB218463B685A681346EB
:103310009B001344413B00FA03F27B681B680A439D
:10332000DA62224BFB607B681B68214A934209D119
:103330003B681B68122B05D1FB685B6843F4800275
:10334000FB685A607B681B68194A934223D13B682B
:103350001B68102B03D03B681B68112B1BD1FB682B
:103360005B6843F40002FB685A603B681B68102BE3
:1033700011D1104B1B68104AA2FB03239A0C134671
:103380009B0013445B00BB6002E0BB68013BBB6079
:10339000BB68002BF9D17B68002283F83C20002316
:1033A00018461437BD465DF8047B70470023014082
:1033B000002001400000002083DE1B4380B485B064
:1033C00000AF7860794BFB60FB685B6823F44032A8
:1033D000FB685A60FB685A687B685B681A43FB6845
:1033E0005A607B681B685A687B681B6822F480728D
:1033F0005A607B681B6859687B681B691A027B6886
:103400001B680A435A607B681B685A687B681B68A4
:1034100022F040725A607B681B6859687B689A6822
:103420007B681B680A435A607B681B689A687B68E4
:103430001B6822F400629A607B681B6899687B684D
:10344000DA687B681B680A439A607B689B6A584A03
:10345000934222D07B681B689A687B681B6822F0C5
:1034600070629A607B681B6899687B689A6A7B685F
:103470001B680A439A607B681B689A687B681B68B4
:1034800022F040529A607B681B6899687B68DA6A10
:103490007B681B680A439A600FE07B681B689A6828
:1034A0007B681B6822F070629A607B681B689A6870
:1034B0007B681B6822F040529A607B681B689A68A0
:1034C0007B681B6822F002029A607B681B6899681F
:1034D0007B681B7E5A007B681B680A439A607B6886
:1034E00093F82030002B1BD07B681B685A687B68E0
:1034F0001B6842F400625A607B681B685A687B68EC
:103500001B6822F460425A607B681B6859687B68BC
:103510005B6A013B5A037B681B680A435A6007E0F9
:103520007B681B685A687B681B6822F400625A60DB
:103530007B681B68DA6A7B681B6822F47002DA62B7
:103540007B681B68D96A7B68DB69013B1A057B686D
:103550001B680A43DA627B681B689A687B681B6891
:1035600022F400729A607B681B6899687B6893F804
:1035700030305A027B681B680A439A607B681B687C
:103580009A687B681B6822F480629A607B681B687B
:1035900099687B685B699A027B681B680A439A603A
:1035A00000BF1437BD465DF8047B7047002301401F
:1035B0000100000F80B584B000AF78607B68002BFD
:1035C00001D10123EDE07B6893F82030DBB2002BC2
:1035D00002D17868FFF76EF87B681B681A687B6811
:1035E0001B6842F001021A60FFF752FDF86012E01A
:1035F000FFF74EFD0246FB68D31A0A2B0BD97B68F6
:103600005B6A43F400327B685A627B68052283F868
:1036100020200123C5E07B681B685B6803F0010381
:10362000002BE5D07B681B681A687B681B6822F05A
:1036300002021A60FFF72CFDF86012E0FFF728FD88
:103640000246FB68D31A0A2B0BD97B685B6A43F4EA
:1036500000327B685A627B68052283F820200123B0
:103660009FE07B681B685B6803F00203002BE5D1D9
:103670007B681B7E012B08D17B681B681A687B68FE
:103680001B6842F080021A6007E07B681B681A68BA
:103690007B681B6822F080021A607B685B7E012BCE
:1036A00008D17B681B681A687B681B6842F040027F
:1036B0001A6007E07B681B681A687B681B6822F049
:1036C00040021A607B689B7E012B08D17B681B68D7
:1036D0001A687B681B6842F020021A6007E07B686A
:1036E0001B681A687B681B6822F020021A607B68DE
:1036F000DB7E012B08D17B681B681A687B681B681E
:1037000022F010021A6007E07B681B681A687B6869
:103710001B6842F010021A607B681B7F012B08D1E6
:103720007B681B681A687B681B6842F008021A6095
:1037300007E07B681B681A687B681B6822F0080238
:103740001A607B685B7F012B08D17B681B681A6855
:103750007B681B6842F004021A6007E07B681B6804
:103760001A687B681B6822F004021A607B689A68FA
:103770007B68DB681A437B681B691A437B685B695B
:1037800042EA03017B685B685A1E7B681B680A4338
:10379000DA617B6800225A627B68012283F820206C
:1037A000002318461037BD4680BD000080B487B0A6
:1037B00000AF786039607B6893F82030FB75FB7D43
:1037C000012B03D0FB7D022B40F0BE80654B3B619B
:1037D0003B69D3F8003243F001023B69C3F8002291
:1037E0003B69D3F8003223F47C523B69C3F80022D2
:1037F0003B69D3F800223B685B6A1B021A433B69B2
:10380000C3F800223B685B6903F01F03012202FA40
:1038100003F3FB603B69D3F81C22FB68DB431A40CF
:103820003B69C3F81C223B68DB69002B23D13B6951
:10383000D3F80C22FB68DB431A403B69C3F80C2227
:103840003B68DB6819043B685B689BB23A68526965
:1038500019433B69483243F832103B689B681904AE
:103860003B681B689AB23B685B690A433969483315
:10387000DB000B445A603B68DB69012B22D13B69BA
:10388000D3F80C22FB681A433B69C3F80C223B684F
:103890001B6819043B685B689BB23A68526919431C
:1038A0003B69483243F832103B689B6819043B6817
:1038B000DB689AB23B685B690A4339694833DB00CD
:1038C0000B445A603B689B69002B09D13B69D3F8D4
:1038D0000422FB68DB431A403B69C3F8042207E07B
:1038E0003B69D3F80422FB681A433B69C3F80422FE
:1038F0003B681B69002B09D13B69D3F81422FB6894
:10390000DB431A403B69C3F8142207E03B69D3F854
:103910001422FB681A433B69C3F814223B681B6AF4
:10392000012B07D13B69D3F81C22FB681A433B6982
:10393000C3F81C223B69D3F8003223F001023B6933
:10394000C3F80022002306E07B685B6A43F4802210
:103950007B685A62012318461C37BD465DF8047B1C
:10396000704700BF0064004080B584B000AF78604D
:103970007B6893F82030DBB2012B2ED17B680222CA
:1039800083F820207B681B681A687B681B6822F01C
:1039900001021A60FFF77CFBF86012E0FFF778FB8A
:1039A0000246FB68D31A0A2B0BD97B685B6A43F487
:1039B00000327B685A627B68052283F8202001234D
:1039C00012E07B681B685B6803F00103002BE5D104
:1039D0007B6800225A62002306E07B685B6A43F43E
:1039E00000227B685A62012318461037BD4680BD0D
:1039F00080B487B000AFF860B9607A603B60FB6864
:103A000093F82030FB75FB7D012B03D0FB7D022B4F
:103A100040F00381BB68002B0ED1FB681B68DB689C
:103A200003F00303002B16D1FB685B6A43F400121A
:103A3000FB685A620123F7E0FB681B681B6903F00F
:103A40000303002B07D1FB685B6A43F40012FB6899
:103A50005A620123E8E0FB681A68BB681B331B014C
:103A600013441B6803F004027B689A607B689B68C0
:103A7000002B0CD1FB681A68BB681B331B01134475
:103A80001B685B0DC3F30A027B681A600BE0FB68DE
:103A90001A68BB681B331B0113441B68DB0823F047
:103AA00060427B685A60FB681A68BB681B331B0165
:103AB00013441B6803F002027B68DA60FB681A6833
:103AC000BB681B331B01134404331B6803F008035A
:103AD000002B03D07B6808221A610BE0FB681A6890
:103AE000BB681B331B01134404331B6803F00F0234
:103AF0007B681A61FB681A68BB681B331B0113449F
:103B000004331B681B0ADAB27B689A61FB681A6887
:103B1000BB681B331B01134404331B681B0C9AB294
:103B20007B685A61FB681A68BB681B01134403F584
:103B3000DC731B68DAB23B681A70FB681A68BB68F2
:103B40001B01134403F5DC731B681A0A3B6801333D
:103B5000D2B21A70FB681A68BB681B01134403F5E4
:103B6000DC731B681A0C3B680233D2B21A70FB6814
:103B70001A68BB681B01134403F5DC731B681A0E3B
:103B80003B680333D2B21A70FB681A68BB681B012A
:103B9000134403F5DE731A683B680433D2B21A701B
:103BA000FB681A68BB681B01134403F5DE731B68CE
:103BB0001A0A3B680533D2B21A70FB681A68BB68F0
:103BC0001B01134403F5DE731B681A0C3B680633B4
:103BD000D2B21A70FB681A68BB681B01134403F564
:103BE000DE731B681A0E3B680733D2B21A70BB68CB
:103BF000002B08D1FB681B68DA68FB681B6842F081
:103C00002002DA6007E0FB681B681A69FB681B6822
:103C100042F020021A61002306E0FB685B6A43F46D
:103C20008022FB685A62012318461C37BD465DF8A6
:103C3000047B704780B485B000AF786039600023A2
:103C4000FB607B6893F82030FB72FB7A012B02D07B
:103C5000FB7A022B0FD13B68002B06D17B681B68D7
:103C6000DB6803F00303FB6005E07B681B681B69EE
:103C700003F00303FB60FB6818461437BD465DF88C
:103C8000047B704780B485B000AF786039607B6892
:103C900093F82030FB73FB7B012B02D0FB7B022BC4
:103CA00009D17B681B6859697B681B683A680A43BD
:103CB0005A61002306E07B685B6A43F480227B68DC
:103CC0005A62012318461437BD465DF8047B7047DD
:103CD00080B58AB000AF786000237B627B681B6888
:103CE0005B693B627B681B685B68FB617B681B6888
:103CF0009B68BB617B681B68DB687B617B681B68BA
:103D00001B693B617B681B689B69FB603B6A03F036
:103D10000103002B7CD0BB6903F00103002B23D0EF
:103D20007B681B6801229A60BB6903F00203002BC9
:103D300003D0786800F083F916E0BB6903F0040350
:103D4000002B04D07B6A43F400637B620CE0BB6908
:103D500003F00803002B04D07B6A43F480537B629A
:103D600002E0786800F089F9BB6903F48073002BE6
:103D700024D07B681B684FF480729A60BB6903F49F
:103D80000073002B03D0786800F063F916E0BB697C
:103D900003F48063002B04D07B6A43F400537B62FE
:103DA0000CE0BB6903F40063002B04D07B6A43F48E
:103DB00080437B6202E0786800F069F9BB6903F434
:103DC0008033002B24D07B681B684FF480329A60CC
:103DD000BB6903F40033002B03D0786800F043F98B
:103DE00016E0BB6903F48023002B04D07B6A43F404
:103DF00000437B620CE0BB6903F40023002B04D07A
:103E00007B6A43F480337B6202E0786800F049F912
:103E10003B6A03F00803002B0CD07B6903F010030E
:103E2000002B07D07B6A43F400737B627B681B68BE
:103E30001022DA603B6A03F00403002B0BD07B698D
:103E400003F00803002B06D07B681B680822DA60A9
:103E5000786800F030F93B6A03F00203002B09D0C8
:103E60007B681B68DB6803F00303002B02D07868D3
:103E700006F018FD3B6A03F04003002B0CD03B69B1
:103E800003F01003002B07D07B6A43F480637B624E
:103E90007B681B6810221A613B6A03F02003002B29
:103EA0000BD03B6903F00803002B06D07B681B682E
:103EB00008221A61786800F008F93B6A03F01003E1
:103EC000002B09D07B681B681B6903F00303002BE0
:103ED00002D0786805F00AF93B6A03F40033002B3E
:103EE0000BD0FB6903F01003002B06D07B681B6826
:103EF00010225A60786800F0F2F83B6A03F48033CD
:103F0000002B0BD0FB6903F00803002B06D07B6865
:103F10001B6808225A60786800F0EBF83B6A03F4EB
:103F20000043002B7BD0FB6903F00403002B72D00D
:103F30003B6A03F48073002B08D0FB6803F0010395
:103F4000002B03D07B6A43F001037B623B6A03F4DE
:103F50000073002B08D0FB6803F00203002B03D092
:103F60007B6A43F002037B623B6A03F48063002BAD
:103F700008D0FB6803F00403002B03D07B6A43F0F6
:103F800004037B623B6A03F40063002B43D0FB68AD
:103F900003F07003002B3ED0FB6803F07003602B2E
:103FA0002BD0602B2ED8502B22D0502B2AD8402B30
:103FB00019D0402B26D8302B10D0302B22D8102BE4
:103FC00002D0202B05D01DE07B6A43F008037B6202
:103FD00019E07B6A43F010037B6214E07B6A43F0D4
:103FE00020037B620FE07B6A43F040037B620AE0C0
:103FF0007B6A43F080037B6205E07B6A43F4807355
:104000007B6200E000BF7B681B689A697B681B6865
:1040100022F070029A617B681B6804225A607B6AF6
:10402000002B08D07B685A6A7B6A1A437B685A6205
:10403000786800F068F800BF2837BD4680BD80B4BE
:1040400083B000AF786000BF0C37BD465DF8047BDD
:10405000704780B483B000AF786000BF0C37BD46B6
:104060005DF8047B704780B483B000AF786000BF18
:104070000C37BD465DF8047B704780B483B000AF59
:10408000786000BF0C37BD465DF8047B704780B494
:1040900083B000AF786000BF0C37BD465DF8047B8D
:1040A000704780B483B000AF786000BF0C37BD4666
:1040B0005DF8047B704780B483B000AF786000BFC8
:1040C0000C37BD465DF8047B704780B483B000AF09
:1040D000786000BF0C37BD465DF8047B704780B444
:1040E00083B000AF786000BF0C37BD465DF8047B3D
:1040F000704780B483B000AF786000BF0C37BD4616
:104100005DF8047B704780B483B000AF786000BF77
:104110000C37BD465DF8047B7047000080B485B065
:1041200000AF78607B6803F00703FB600C4BDB6833
:10413000BB60BA684FF6FF031340BB60FB681A020E
:10414000BB68134343F0BF6343F40033BB60044ACE
:10415000BB68D36000BF1437BD465DF8047B704771
:1041600000ED00E080B400AF044BDB681B0A03F0F5
:1041700007031846BD465DF8047B704700ED00E07C
:1041800080B483B000AF0346FB7197F90730002B72
:104190000BDBFB7903F01F02074997F907305B0936
:1041A000012000FA02F241F8232000BF0C37BD467F
:1041B0005DF8047B704700BF00E100E080B483B08D
:1041C00000AF03463960FB7197F90730002B0ADB1B
:1041D0003B68DAB20C4997F907301201D2B20B44AE
:1041E00083F800230AE03B68DAB20849FB7903F060
:1041F0000F03043B1201D2B20B441A7600BF0C37F6
:10420000BD465DF8047B704700E100E000ED00E092
:1042100080B489B000AFF860B9607A60FB6803F0E1
:104220000703FB61FB69C3F10703042B28BF0423C9
:10423000BB61FB690433062B02D9FB69033B00E039
:1042400000237B614FF0FF32BB6902FA03F3DA43CC
:10425000BB681A407B699A404FF0FF317B6901FAD5
:1042600003F3D9437B680B40134318462437BD46FC
:104270005DF8047B7047000080B400AFBFF34F8F40
:1042800000BF064BDB6803F4E0620449044B1343B0
:10429000CB60BFF34F8F00BF00BFFDE700ED00E034
:1042A0000400FA0580B582B000AF78607B68013BFE
:1042B000B3F1807F01D301230FE00A4A7B68013B01
:1042C00053600F214FF0FF30FFF778FF054B0022BE
:1042D0009A60044B07221A60002318460837BD462F
:1042E00080BD00BF10E000E080B582B000AF786014
:1042F0007868FFF713FF00BF0837BD4680BD80B563
:1043000086B000AF0346B9607A60FB7300237B611F
:10431000FFF728FF78617A68B9687869FFF778FF56
:10432000024697F90F3011461846FFF747FF00BFC6
:104330001837BD4680BD80B582B000AF0346FB7123
:1043400097F907301846FFF71BFF00BF0837BD4637
:1043500080BD80B500AFFFF78FFF80B582B000AFA2
:1043600078607868FFF79EFF034618460837BD4619
:1043700080BD000080B586B000AF786000237B610F
:10438000FEF786FE38617B68002B01D1012399E09E
:104390007B68022283F835207B68002283F8342072
:1043A0007B681B681A687B681B6822F001021A6030
:1043B0000FE0FEF76DFE02463B69D31A052B08D9C4
:1043C0007B6820225A657B68032283F8352003230B
:1043D00078E07B681B681B6803F00103002BE8D1C1
:1043E0007B681B681B687B617A69384B13407B6173
:1043F0007B685A687B689B681A437B68DB681A4352
:104400007B681B691A437B685B691A437B689B69FD
:104410001A437B68DB691A437B681B6A13437A691A
:1044200013437B617B685B6A042B07D17B68DA6A84
:104430007B681B6B13437A6913437B617B681B6842
:104440007A691A607B681B685B697B617B6923F012
:1044500007037B617B685B6A7A6913437B617B68D6
:104460005B6A042B17D17B689B6A7A6913437B6173
:104470007B68DB6A002B0ED0786800F07BFA03467D
:10448000002B08D07B6840225A657B68012283F8A4
:104490003520012316E07B681B687A695A617868C9
:1044A00000F032FA0346FB607B68DB6D3F229A40E6
:1044B000FB689A607B6800225A657B68012283F85A
:1044C0003520002318461837BD4680BD3F8010F0C8
:1044D00080B584B000AF78607B689B6DFB60FEF7B1
:1044E000D7FDB8607B6893F83530DBB2022B08D07B
:1044F0007B6880225A657B68002283F83420012380
:1045000052E07B681B681A687B681B6822F0160201
:104510001A607B681B685A697B681B6822F08002FE
:104520005A617B681B6C002B03D17B689B6C002B52
:1045300007D07B681B681A687B681B6822F008023A
:104540001A607B681B681A687B681B6822F001028E
:104550001A6013E0FEF79CFD0246BB68D31A052BD8
:104560000CD97B6820225A657B68032283F83520AA
:104570007B68002283F83420032315E07B681B68E6
:104580001B6803F00103002BE4D17B68DB6D3F2245
:104590009A40FB689A607B68012283F835207B682B
:1045A000002283F83420002318461037BD4680BD12
:1045B00080B483B000AF78607B6893F83530DBB2AD
:1045C000022B04D07B6880225A6501230CE07B68B3
:1045D000052283F835207B681B681A687B681B6896
:1045E00022F001021A60002318460C37BD465DF820
:1045F000047B704780B586B000AF78600023BB6055
:104600008E4B1B688E4AA2FB03239B0A7B617B684F
:104610009B6D3B613B691B68FB607B68DB6D08221F
:104620009A40FB681340002B1AD07B681B681B68FC
:1046300003F00403002B13D07B681B681A687B68A7
:104640001B6822F004021A607B68DB6D08229A4026
:104650003B699A607B685B6D43F001027B685A6539
:104660007B68DB6D01229A40FB681340002B12D05F
:104670007B681B685B6903F08003002B0BD07B68B1
:10468000DB6D01229A403B699A607B685B6D43F069
:1046900002027B685A657B68DB6D04229A40FB68E6
:1046A0001340002B12D07B681B681B6803F00203C9
:1046B000002B0BD07B68DB6D04229A403B699A602B
:1046C0007B685B6D43F004027B685A657B68DB6D39
:1046D00010229A40FB681340002B43D07B681B6874
:1046E0001B6803F00803002B3CD07B68DB6D1022B5
:1046F0009A403B699A607B681B681B6803F48023BF
:10470000002B18D07B681B681B6803F40023002B68
:1047100008D17B681B6C002B24D07B681B6C7868ED
:1047200098471FE07B689B6C002B1BD07B689B6CC1
:104730007868984716E07B681B681B6803F48073F1
:10474000002B07D17B681B681A687B681B6822F006
:1047500008021A607B681B6C002B03D07B681B6C03
:10476000786898477B68DB6D20229A40FB6813408D
:10477000002B00F08F807B681B681B6803F0100320
:10478000002B00F087807B68DB6D20229A403B691C
:104790009A607B6893F83530DBB2052B36D17B68A5
:1047A0001B681A687B681B6822F016021A607B6817
:1047B0001B685A697B681B6822F080025A617B681B
:1047C0001B6C002B03D17B689B6C002B07D07B6894
:1047D0001B681A687B681B6822F008021A607B68F5
:1047E000DB6D3F229A403B699A607B68012283F827
:1047F00035207B68002283F834207B681B6D002BFA
:104800007ED07B681B6D7868984779E07B681B6871
:104810001B6803F48023002B1DD07B681B681B687A
:1048200003F40023002B0DD17B685B6C002B31D08F
:104830007B685B6C786898472CE000BF0000002024
:10484000B5814E1B7B68DB6B002B23D07B68DB6B59
:10485000786898471EE07B681B681B6803F48073C8
:10486000002B0FD17B681B681A687B681B6822F0DD
:1048700010021A607B68012283F835207B680022D1
:1048800083F834207B68DB6B002B03D07B68DB6B09
:10489000786898477B685B6D002B32D07B685B6DD6
:1048A00003F00103002B22D07B68052283F835201A
:1048B0007B681B681A687B681B6822F001021A601B
:1048C000BB680133BB607A699A4207D37B681B6877
:1048D0001B6803F00103002BF2D100E000BF7B68EE
:1048E000012283F835207B68002283F834207B681E
:1048F000DB6C002B05D07B68DB6C7868984700E0A8
:1049000000BF1837BD4680BD80B485B000AF786069
:104910007B681B68DBB2103B144AA2FB03231B0914
:10492000FB60134AFB6813441B781A467B68DA6500
:10493000FB68032B09D97B681B6823F47F7323F082
:1049400003031A1D7B689A6507E07B681B6823F4E4
:104950007F7323F003037A6893657B689B6D184629
:104960001437BD465DF8047B704700BFABAAAAAA06
:1049700044A4010880B485B000AF78600023FB73C5
:104980007B689B6ABB607B689B69002B1FD1BB68FF
:10499000032B56D801A252F823F000BFAD490008FE
:1049A000BF490008AD490008434A00087B68DB6A3C
:1049B00003F08073002B46D00123FB7343E07B6838
:1049C000DB6AB3F1C07F40D10123FB733DE07B681C
:1049D0009B69B3F5005F21D1BB68032B37D801A2D7
:1049E00052F823F0F5490008FB490008F549000892
:1049F0000D4A00080123FB7330E07B68DB6A03F09B
:104A00008073002B25D00123FB7322E07B68DB6AD7
:104A1000B3F1C07F1FD10123FB731CE0BB68022BE5
:104A200003D9BB68032B03D018E00123FB7315E007
:104A30007B68DB6A03F08073002B0ED00123FB73CD
:104A40000BE000BF0AE000BF08E000BF06E000BFC7
:104A500004E000BF02E000BF00E000BFFB7B18469F
:104A60001437BD465DF8047B704700BF80B489B041
:104A700000AF7860396000237B6100233B61002335
:104A8000BB610023FB616BE10122FB6902FA03F3C6
:104A90007B613B681B687A6913403B613A697B69BB
:104AA0009A4240F05A813B685B6803F00303012B94
:104AB00005D03B685B6803F00303022B30D17B68B1
:104AC0009B68BB61FB695B00032202FA03F3DB43D3
:104AD000BA691340BB613B68DA68FB695B0002FAA4
:104AE00003F3BA691343BB617B68BA699A607B6858
:104AF0005B68BB610122FB6902FA03F3DB43BA691D
:104B00001340BB613B685B681B0903F00102FB6952
:104B100002FA03F3BA691343BB617B68BA695A604E
:104B20003B685B6803F00303032B17D07B68DB68EB
:104B3000BB61FB695B00032202FA03F3DB43BA6942
:104B40001340BB613B689A68FB695B0002FA03F3A0
:104B5000BA691343BB617B68BA69DA603B685B681A
:104B600003F00303022B23D1FB69DA087B680832C8
:104B700053F82230BB61FB6903F007039B000F224F
:104B800002FA03F3DB43BA691340BB613B681A695D
:104B9000FB6903F007039B0002FA03F3BA691343AE
:104BA000BB61FB69DA087B680832B96943F82210F7
:104BB0007B681B68BB61FB695B00032202FA03F39D
:104BC000DB43BA691340BB613B685B6803F00302D7
:104BD000FB695B0002FA03F3BA691343BB617B68AC
:104BE000BA691A603B685B6803F44033002B00F03D
:104BF000B4800023FB60604B5B6C5F4A43F48043EE
:104C000053645D4B5B6C03F48043FB60FB685B4A61
:104C1000FB699B08023352F82330BB61FB6903F048
:104C200003039B000F2202FA03F3DB43BA6913402C
:104C3000BB617B68524A93422BD07B68514A9342B6
:104C400025D07B68504A93421FD07B684F4A9342DD
:104C500019D07B684E4A934213D07B684D4A9342E9
:104C60000DD07B684C4A934207D07B684B4A9342F5
:104C700001D107230EE008230CE006230AE00523F8
:104C800008E0042306E0032304E0022302E00123FA
:104C900000E00023FA6902F0030292009340BA692F
:104CA0001343BB613549FB699B080233BA6941F87C
:104CB00023203B4B9B68BB613B69DB43BA691340D4
:104CC000BB613B685B6803F48013002B03D0BA69B7
:104CD0003B691343BB61324ABB699360304BDB686D
:104CE000BB613B69DB43BA691340BB613B685B68EE
:104CF00003F40013002B03D0BA693B691343BB6173
:104D0000274ABB69D360264B5B68BB613B69DB43C9
:104D1000BA691340BB613B685B6803F40033002B46
:104D200003D0BA693B691343BB611D4ABB69536039
:104D30001B4B1B68BB613B69DB43BA691340BB611A
:104D40003B685B6803F48033002B03D0BA693B698E
:104D50001343BB61124ABB691360FB690133FB61FA
:104D6000FB690F2B7FF690AE00BF00BF2437BD4616
:104D70005DF8047B704700BF0038024000380140F6
:104D8000000002400004024000080240000C024003
:104D9000001002400014024000180240001C0240B3
:104DA000003C014080B485B000AF78600B467B804A
:104DB0007B681A697B881340002B02D00123FB73A8
:104DC00001E00023FB73FB7B18461437BD465DF8FA
:104DD000047B704780B483B000AF78600B467B8063
:104DE00013467B707B78002B03D07A887B689A61AE
:104DF00003E07B881A047B689A6100BF0C37BD46CC
:104E00005DF8047B7047000080B582B000AF0346B8
:104E1000FB80084B5A69FB881340002B06D0054ADB
:104E2000FB885361FB881846FDF768FA00BF083716
:104E3000BD4680BD003C014080B584B000AF7860C5
:104E40007B68002B01D101232BE17B6893F83D3077
:104E5000DBB2002B06D17B68002283F83C20786807
:104E6000FDF780FC7B68242283F83D207B681B686B
:104E70001A687B681B6822F001021A607B681B6855
:104E80001A687B681B6842F400421A607B681B68E2
:104E90001A687B681B6822F400421A6001F0E0FD8A
:104EA000F8607B685B68814A934207D8FB68804A58
:104EB000934294BF01230023DBB206E0FB687D4AE6
:104EC000934294BF01230023DBB2002B01D00123C6
:104ED000E7E0FB68784AA2FB03239B0CBB607B687E
:104EE0001B685B6823F03F017B681B68BA680A4354
:104EF0005A607B681B681B6A23F03F017B685B6814
:104F00006A4A934202D8BB68013309E0BB684FF498
:104F1000967202FB03F3694AA2FB03239B09013348
:104F20007A6812680B4313627B681B68DB6923F4A1
:104F30004F4222F0FF027B685B685C498B4219D8C4
:104F4000FB68591E7B685B685B00B1FBF3F3591C7F
:104F500040F6FC730B40002B0AD0FB68591E7B689F
:104F60005B685B00B1FBF3F30133C3F30B0351E068
:104F700004234FE07B689B68002B11D1FB68581E0F
:104F80007B6859680B465B000B44B0FBF3F30133BD
:104F9000C3F30B03002B0CBF01230023DBB212E091
:104FA000FB68581E7B6859680B469B000B449900B0
:104FB0000B44B0FBF3F30133C3F30B03002B0CBF23
:104FC00001230023DBB2002B01D0012322E07B6808
:104FD0009B68002B0ED1FB68581E7B6859680B46F6
:104FE0005B000B44B0FBF3F30133C3F30B0343F457
:104FF00000430FE0FB68581E7B6859680B469B0016
:105000000B4499000B44B0FBF3F30133C3F30B03E0
:1050100043F44043796809681343CB617B681B689C
:105020001B6823F0C0017B68DA697B681B6A1A433E
:105030007B681B680A431A607B681B689B6823F4C3
:10504000034323F0FF037A6811697A68D268114339
:105050007A6812680B4393607B681B68DB6823F0F7
:10506000FF017B685A697B689B691A437B681B68F0
:105070000A43DA607B681B681A687B681B6842F029
:1050800001021A607B6800221A647B68202283F880
:105090003D207B6800221A637B68002283F83E2053
:1050A000002318461037BD4680BD00BFA086010012
:1050B0007F841E00FF083D0083DE1B43D34D62103A
:1050C00080B588B002AFF860084611461A4603461C
:1050D0007B810B463B811346FB80FDF7D9FF78614E
:1050E000FB6893F83D30DBB2202B40F0D9807B6920
:1050F0000093192301226D49F86800F0B9FD0346B9
:10510000002B01D00223CCE0FB6893F83C30012B4C
:1051100001D10223C5E0FB68012283F83C20FB6833
:105120001B681B6803F00103012B07D0FB681B6899
:105130001A68FB681B6842F001021A60FB681B6872
:105140001A68FB681B6822F400621A60FB6821225F
:1051500083F83D20FB68402283F83E20FB68002254
:105160001A64FB683A6A5A62FB68BA8C5A85FB6813
:105170005B8D9AB2FB681A85FB684D4ADA62F88843
:105180003A8979897B690193BB6A00930346F86881
:1051900000F0F0FB0346002B52D0012381E07A6936
:1051A000B96AF86800F07EFE0346002B0DD0FB685C
:1051B0001B6C042B07D1FB681B681A68FB681B6813
:1051C00042F400721A6001236BE0FB685B6A1A7894
:1051D000FB681B681A61FB685B6A5A1CFB685A62B1
:1051E000FB681B8D013B9AB2FB681A85FB685B8DDF
:1051F0009BB2013B9AB2FB685A85FB681B685B69EE
:1052000003F00403042B1BD1FB681B8D002B17D06C
:10521000FB685B6A1A78FB681B681A61FB685B6A4B
:105220005A1CFB685A62FB681B8D013B9AB2FB68F3
:105230001A85FB685B8D9BB2013B9AB2FB685A856D
:10524000FB681B8D002BAAD17A69B96AF86800F057
:1052500071FE0346002B0DD0FB681B6C042B07D19D
:10526000FB681B681A68FB681B6842F400721A60CE
:10527000012316E0FB681B681A68FB681B6842F490
:1052800000721A60FB68202283F83D20FB68002230
:1052900083F83E20FB68002283F83C20002300E0D6
:1052A000022318461837BD4680BD00BF020010001B
:1052B0000000FFFF80B58CB002AFF86008461146D1
:1052C0001A4603467B810B463B811346FB80FDF764
:1052D000DFFE7862FB6893F83D30DBB2202B40F0B4
:1052E00014827B6A0093192301227B49F86800F03D
:1052F000BFFC0346002B01D0022307E2FB6893F8B2
:105300003C30012B01D1022300E2FB68012283F82B
:105310003C20FB681B681B6803F00103012B07D0CE
:10532000FB681B681A68FB681B6842F001021A6080
:10533000FB681B681A68FB681B6822F400621A602D
:10534000FB68222283F83D20FB68402283F83E2040
:10535000FB6800221A64FB683A6B5A62FB68BA8EDB
:105360005A85FB685B8D9AB2FB681A85FB685B4ABD
:10537000DA62F8883A8979897B6A0193BB6B00937A
:105380000346F86800F08CFB0346002B01D0012394
:10539000BCE1FB681B8D002B13D100233B62FB6833
:1053A0001B685B693B62FB681B689B693B623B6AED
:1053B000FB681B681A68FB681B6842F400721A607D
:1053C00090E1FB681B8D012B1BD1FB681B681A68E1
:1053D000FB681B6822F480621A600023FB61FB6893
:1053E0001B685B69FB61FB681B689B69FB61FB6970
:1053F000FB681B681A68FB681B6842F400721A603D
:1054000070E1FB681B8D022B1BD1FB681B681A68BF
:10541000FB681B6822F480621A60FB681B681A68CC
:10542000FB681B6842F400621A600023BB61FB68E2
:105430001B685B69BB61FB681B689B69BB61BB69DF
:1054400050E100237B61FB681B685B697B61FB6843
:105450001B689B697B617B6944E1FB681B8D032BA7
:1054600000F2F180FB681B8D012B23D17A6AB96BA6
:10547000F86800F0A7FD0346002B01D0012345E1A9
:10548000FB681B681A69FB685B6AD2B21A70FB681A
:105490005B6A5A1CFB685A62FB681B8D013B9AB21F
:1054A000FB681A85FB685B8D9BB2013B9AB2FB6877
:1054B0005A8517E1FB681B8D022B4ED17B6A009346
:1054C000BB6B00220649F86800F0D2FB0346002BB4
:1054D00008D001231AE100BF020010000000FFFF06
:1054E00004000100FB681B681A68FB681B6842F433
:1054F00000721A60FB681B681A69FB685B6AD2B2AB
:105500001A70FB685B6A5A1CFB685A62FB681B8D49
:10551000013B9AB2FB681A85FB685B8D9BB2013B2D
:105520009AB2FB685A85FB681B681A69FB685B6A5C
:10553000D2B21A70FB685B6A5A1CFB685A62FB683D
:105540001B8D013B9AB2FB681A85FB685B8D9BB291
:10555000013B9AB2FB685A85C4E07B6A0093BB6B3F
:1055600000226C49F86800F083FB0346002B01D051
:105570000123CBE0FB681B681A68FB681B6822F4F8
:1055800080621A60FB681B681A69FB685B6AD2B2AA
:105590001A70FB685B6A5A1CFB685A62FB681B8DB9
:1055A000013B9AB2FB681A85FB685B8D9BB2013B9D
:1055B0009AB2FB685A857B6A0093BB6B00225549FF
:1055C000F86800F055FB0346002B01D001239DE055
:1055D000FB681B681A68FB681B6842F400721A605B
:1055E000FB681B681A69FB685B6AD2B21A70FB68B9
:1055F0005B6A5A1CFB685A62FB681B8D013B9AB2BE
:10560000FB681A85FB685B8D9BB2013B9AB2FB6815
:105610005A85FB681B681A69FB685B6AD2B21A700C
:10562000FB685B6A5A1CFB685A62FB681B8D013B76
:105630009AB2FB681A85FB685B8D9BB2013B9AB2FC
:10564000FB685A854EE07A6AB96BF86800F0BAFCDC
:105650000346002B01D0012358E0FB681B681A6940
:10566000FB685B6AD2B21A70FB685B6A5A1CFB6803
:105670005A62FB681B8D013B9AB2FB681A85FB6876
:105680005B8D9BB2013B9AB2FB685A85FB681B6835
:105690005B6903F00403042B24D1FB681B8D032BEF
:1056A00007D1FB681B681A68FB681B6822F48062DC
:1056B0001A60FB681B681A69FB685B6AD2B21A70D1
:1056C000FB685B6A5A1CFB685A62FB681B8D013BD6
:1056D0009AB2FB681A85FB685B8D9BB2013B9AB25C
:1056E000FB685A85FB681B8D002B7FF4B6AEFB6808
:1056F000202283F83D20FB68002283F83E20FB68CF
:10570000002283F83C20002300E0022318462837BB
:10571000BD4680BD0400010080B58AB002AFF860CC
:105720007A603B600B467B81FDF7B2FCF861002399
:10573000BB61FB6893F83D30DBB2202B40F0118158
:10574000FB690093192301228849F86800F090FA58
:105750000346002B01D0022304E1FB6893F83C30A0
:10576000012B01D10223FDE0FB68012283F83C20DC
:10577000FB681B681B6803F00103012B07D0FB6863
:105780001B681A68FB681B6842F001021A60FB681C
:105790001B681A68FB681B6822F400621A60FB68C9
:1057A000242283F83D20FB6800221A64FB68704ABB
:1057B000DA62FB681B681A68FB681B6842F4807237
:1057C0001A60FB6900933B6800224FF00111F868F2
:1057D00000F04EFA0346002B0DD0FB681B681B68D7
:1057E00003F48073B3F5807F03D1FB684FF400723C
:1057F0001A640323B6E07B89DBB21A46FB681B6898
:1058000002F0FE021A61FDF743FCF861FB681B68B9
:105810005B6903F00203022B0CBF01230023DBB200
:10582000FB75FB681B685B6903F48063B3F5806FED
:105830000CBF01230023DBB2BB7525E0FDF728FC7C
:105840000246FB69D31A3A689A4202D33B68002B9E
:1058500003D1FB68A02283F83D20FB681B685B69CD
:1058600003F00203022B0CBF01230023DBB2FB7504
:10587000FB681B685B6903F48063B3F5806F0CBF42
:1058800001230023DBB2BB75FB6893F83D30DBB22C
:10589000A02B05D0FB7D002B02D1BB7D002BCDD0F2
:1058A000FB68202283F83D20FB681B685B6903F0DE
:1058B0000203022B29D1FB681B681A68FB681B686E
:1058C00042F400721A6000233B61FB681B685B694D
:1058D0003B61FB681B689B693B613B69FB6900930B
:1058E000192301222149F86800F0C2F90346002B70
:1058F00001D0012336E0FB68202283F83D20FB68BD
:10590000002283F83C2000232CE0FB681B681A6807
:10591000FB681B6842F400721A60FB681B686FF436
:1059200080625A61FB690093192301220F49F868CC
:1059300000F09EF90346002B01D0012312E0BB6961
:105940000133BB61BA697B689A42FFF432AFFB68EE
:10595000202283F83D20FB68002283F83C200123AD
:1059600000E0022318462037BD4680BD020010002B
:105970000000FFFF80B588B002AFF860084611460E
:105980001A4603467B810B463B811346FB80FB682E
:105990001B681A68FB681B6842F480721A607B6A95
:1059A00000933B6A00224FF00111F86800F060F9A3
:1059B0000346002B0DD0FB681B681B6803F4807343
:1059C000B3F5807F03D1FB684FF400721A640323A0
:1059D0005FE07B89DBB21A46FB681B6802F0FE02BF
:1059E0001A617B6A3A6A2D49F86800F0BBF90346F0
:1059F000002B01D001234CE000237B61FB681B6876
:105A00005B697B61FB681B689B697B617B697A6A68
:105A1000396AF86800F046FA0346002B0DD0FB689F
:105A20001B6C042B07D1FB681B681A68FB681B689A
:105A300042F400721A6001232BE0FB88012B05D190
:105A40003B89DAB2FB681B681A6121E03B891B0ABB
:105A50009BB2DAB2FB681B681A617A6A396AF86825
:105A600000F020FA0346002B0DD0FB681B6C042BC2
:105A700007D1FB681B681A68FB681B6842F4007258
:105A80001A60012305E03B89DAB2FB681B681A61E2
:105A9000002318461837BD4680BD00BF0200010034
:105AA00080B588B002AFF860084611461A46034632
:105AB0007B810B463B811346FB80FB681B681A68A1
:105AC000FB681B6842F480621A60FB681B681A68F6
:105AD000FB681B6842F480721A607B6A00933B6A21
