:020000040800F2
:100000000000022025190008B9160008C1160008D2
:10001000C9160008D1160008D91600080000000013
:10002000000000000000000000000000E1160008D1
:10003000EF16000800000000FD1600080B1700086E
:100040007519000875190008751900087519000858
:100050007519000875190008751900087519000848
:100060007519000875190008751900087519000838
:100070007519000875190008751900087519000828
:100080007519000875190008751900087519000818
:10009000191700082D1700087519000875190008B0
:1000A00075190008751900087519000875190008F8
:1000B00075190008751900087519000875190008E8
:1000C00075190008751900087519000875190008D8
:1000D00075190008751900087519000875190008C8
:1000E00041170008751900087519000875190008EE
:1000F00075190008751900087519000875190008A8
:100100007519000875190008751900087519000897
:100110007519000875190008751900087519000887
:100120007519000875190008751900087519000877
:100130007519000875190008751900087519000867
:10014000751900087519000875190008611700086D
:100150007519000875190008751900087519000847
:100160007519000875190008751900087519000837
:1001700075190008751900087519000800000000BD
:0801800075190008751900084B
:1001900010B5054C237833B9044B13B10448AFF3C1
:1001A00000800123237010BDC40200200000000065
:1001B0009011010808B5034B1BB103490348AFF385
:1001C000008008BD00000000C80200209011010856
:1001D00001F0FF01102A2BDB10F0070F08D010F8F8
:1001E000013B013A8B422DD010F0070F42B3F6D1FC
:1001F000F0B441EA012141EA014122F007047FF015
:1002000000070023F0E80256083C85EA010586EA6B
:10021000010685FA47F5A3FA87F586FA47F6A5FAA7
:1002200087F68EB9EED1F0BC01F0FF0102F00702B3
:1002300032B110F8013B013A83EA010313B1F8D15E
:100240000020704701387047002D06BF354603383F
:10025000073815F0010F07D1013015F4807F02BF78
:10026000013015F4C03F0130F0BC0138704700BFC9
:10027000034613F8012B002AFBD1181A01387047E6
:1002800081F0004102E000BF83F0004330B54FEA47
:1002900041044FEA430594EA050F08BF90EA020FB4
:1002A0001FBF54EA000C55EA020C7FEA645C7FEA47
:1002B000655C00F0E2804FEA5454D4EB5555B8BF6A
:1002C0006D420CDD2C4480EA020281EA030382EADB
:1002D000000083EA010180EA020281EA0303362D6D
:1002E00088BF30BD11F0004F4FEA01314FF4801C40
:1002F0004CEA113102D0404261EB410113F0004F52
:100300004FEA03334CEA133302D0524263EB430308
:1003100094EA050F00F0A780A4F10104D5F1200EA6
:100320000DDB02FA0EFC22FA05F2801841F1000101
:1003300003FA0EF2801843FA05F359410EE0A5F1D5
:1003400020050EF1200E012A03FA0EFC28BF4CF006
:10035000020C43FA05F3C01851EBE37101F00045BC
:1003600007D54FF0000EDCF1000C7EEB00006EEBC9
:100370000101B1F5801F1BD3B1F5001F0CD3490853
:100380005FEA30004FEA3C0C04F101044FEA4452AA
:1003900012F5800F80F09A80BCF1004F08BF5FEA31
:1003A000500C50F1000041EB045141EA050130BD11
:1003B0005FEA4C0C404141EB0101013C28BFB1F523
:1003C000801FE9D291F0000F04BF01460020B1FA6E
:1003D00081F308BF2033A3F10B03B3F120020CDA41
:1003E0000C3208DD02F1140CC2F10C0201FA0CF01F
:1003F00021FA02F10CE002F11402D8BFC2F1200C84
:1004000001FA02F120FA0CFCDCBF41EA0C01904039
:10041000E41AA2BF01EB0451294330BD6FEA040482
:100420001F3C1CDA0C340EDC04F11404C4F120026D
:1004300020FA04F001FA02F340EA030021FA04F37F
:1004400045EA030130BDC4F10C04C4F1200220FAD6
:1004500002F001FA04F340EA0300294630BD21FA14
:1004600004F0294630BD94F0000F83F4801306BFDA
:1004700081F480110134013D4EE77FEA645C18BFCE
:100480007FEA655C29D094EA050F08BF90EA020F65
:1004900005D054EA000C04BF1946104630BD91EA5D
:1004A000030F1EBF0021002030BD5FEA545C05D160
:1004B0004000494128BF41F0004130BD14F580049F
:1004C0003CBF01F5801130BD01F0004545F0FE4113
:1004D00041F470014FF0000030BD7FEA645C1ABF48
:1004E000194610467FEA655C1CBF0B46024650EA7F
:1004F000013406BF52EA033591EA030F41F40021AB
:1005000030BD00BF90F0000F04BF0021704730B530
:100510004FF4806404F132044FF000054FF0000105
:1005200050E700BF90F0000F04BF0021704730B5C6
:100530004FF4806404F1320410F0004548BF40429B
:100540004FF000013EE700BF42004FEAE2014FEAF0
:1005500031014FEA02701FBF12F07F4393F07F4FCB
:1005600081F06051704732F07F4208BF704793F0CE
:100570007F4F04BF41F40021704730B54FF46074E1
:1005800001F0004521F000411CE700BF50EA0102E4
:1005900008BF704730B54FF000050AE050EA01028D
:1005A00008BF704730B511F0004502D5404261EBFD
:1005B00041014FF4806404F132045FEA915C3FF43E
:1005C000D8AE4FF003025FEADC0C18BF03325FEADB
:1005D000DC0C18BF033202EBDC02C2F1200300FA8C
:1005E00003FC20FA02F001FA03FE40EA0E0021FAB1
:1005F00002F11444BDE600BF70B54FF0FF0C4CF49F
:10060000E06C1CEA11541DBF1CEA135594EA0C0F50
:1006100095EA0C0F00F0DEF82C4481EA030621EA8B
:100620004C5123EA4C5350EA013518BF52EA0335C6
:1006300041F4801143F4801338D0A0FB02CE4FF078
:100640000005E1FB02E506F00042E0FB03E54FF0A8
:100650000006E1FB03569CF0000F18BF4EF0010EA0
:10066000A4F1FF04B6F5007F64F5407404D25FEA9C
:100670004E0E6D4146EB060642EAC62141EA55514F
:100680004FEAC52040EA5E504FEACE2EB4F1FD0C91
:1006900088BFBCF5E06F1ED8BEF1004F08BF5FEA0F
:1006A000500E50F1000041EB045170BD06F00046C1
:1006B00046EA010140EA020081EA0301B4EB5C046E
:1006C000C2BFD4EB0C0541EA045170BD41F4801166
:1006D0004FF0000E013C00F3AB8014F1360FDEBF8B
:1006E000002001F0004170BDC4F10004203C35DA67
:1006F0000C341BDC04F11404C4F1200500FA05F3EA
:1007000020FA04F001FA05F240EA020001F000428A
:1007100021F0004110EBD37021FA04F642EB060100
:100720005EEA430E08BF20EAD37070BDC4F10C042A
:10073000C4F1200500FA04F320FA05F001FA04F2EE
:1007400040EA020001F0004110EBD37041F10001DA
:100750005EEA430E08BF20EAD37070BDC4F12005E5
:1007600000FA05F24EEA020E20FA04F301FA05F24D
:1007700043EA020321FA04F001F0004121FA04F2F5
:1007800020EA020000EBD3705EEA430E08BF20EAC5
:10079000D37070BD94F0000F0FD101F000464000FF
:1007A00041EB010111F4801F08BF013CF7D041EA81
:1007B000060195F0000F18BF704703F00046520085
:1007C00043EB030313F4801F08BF013DF7D043EA56
:1007D0000603704794EA0C0F0CEA135518BF95EA0C
:1007E0000C0F0CD050EA410618BF52EA4306D1D193
:1007F00081EA030101F000414FF0000070BD50EAB2
:10080000410606BF1046194652EA430619D094EA3B
:100810000C0F02D150EA013613D195EA0C0F05D125
:1008200052EA03361CBF104619460AD181EA030179
:1008300001F0004141F0FE4141F470014FF0000031
:1008400070BD41F0FE4141F4780170BD70B54FF0CC
:10085000FF0C4CF4E06C1CEA11541DBF1CEA13554C
:1008600094EA0C0F95EA0C0F00F0A7F8A4EB05042E
:1008700081EA030E52EA03354FEA013100F0888025
:100880004FEA03334FF0805545EA131343EA1263EE
:100890004FEA022245EA111545EA10654FEA0026A3
:1008A0000EF000419D4208BF964244F1FD0404F55C
:1008B000407402D25B084FEA3202B61A65EB0305B8
:1008C0005B084FEA32024FF480104FF4002CB6EB75
:1008D000020E75EB030E22BFB61A754640EA0C00F5
:1008E0005B084FEA3202B6EB020E75EB030E22BF35
:1008F000B61A754640EA5C005B084FEA3202B6EB76
:10090000020E75EB030E22BFB61A754640EA9C0034
:100910005B084FEA3202B6EB020E75EB030E22BF04
:10092000B61A754640EADC0055EA060E18D04FEAC2
:10093000051545EA16754FEA06164FEAC30343EA62
:1009400052734FEAC2025FEA1C1CC0D111F4801F2F
:100950000BD141EA00014FF000004FF0004CB6E728
:1009600011F4801F04BF01430020B4F1FD0C88BFC7
:10097000BCF5E06F3FF6AFAEB5EB030C04BFB6EBD2
:10098000020C5FEA500C50F1000041EB045170BDC5
:100990000EF0004E4EEA113114EB5C04C2BFD4EBF2
:1009A0000C0541EA045170BD41F480114FF0000E76
:1009B000013C90E645EA060E8DE60CEA135594EAF2
:1009C0000C0F08BF95EA0C0F3FF43BAF94EA0C0FF5
:1009D0000AD150EA01347FF434AF95EA0C0F7FF46A
:1009E00025AF104619462CE795EA0C0F06D152EABE
:1009F00003353FF4FDAE1046194622E750EA4106A2
:100A000018BF52EA43067FF4C5AE50EA41047FF4B2
:100A10000DAF52EA43057FF4EBAE12E74FF0FF3C17
:100A200006E000BF4FF0010C02E000BF4FF0010CE8
:100A30004DF804CD4FEA410C7FEA6C5C4FEA430C61
:100A400018BF7FEA6C5C1BD001B050EA410C0CBFB0
:100A500052EA430C91EA030F02BF90EA020F002012
:100A6000704710F1000F91EA030F58BF994208BF79
:100A700090422CBFD8176FEAE37040F00100704736
:100A80004FEA410C7FEA6C5C02D150EA013C07D18D
:100A90004FEA430C7FEA6C5CD6D152EA033CD3D0D8
:100AA0005DF8040B704700BF8446104662468C46D2
:100AB0001946634600E000BF01B5FFF7B7FF002805
:100AC00048BF10F1000F01BD4DF808EDFFF7F4FF2E
:100AD0000CBF012000205DF808FB00BF4DF808EDB9
:100AE000FFF7EAFF34BF012000205DF808FB00BFDC
:100AF0004DF808EDFFF7E0FF94BF012000205DF8FE
:100B000008FB00BF4DF808EDFFF7CEFF94BF0120B2
:100B100000205DF808FB00BF4DF808EDFFF7C4FFAB
:100B200034BF012000205DF808FB00BF4FEA410CF4
:100B30007FEA6C5C02D150EA013C0AD14FEA430CD7
:100B40007FEA6C5C02D152EA033C02D14FF0000014
:100B500070474FF0010070474FEA410212F5001252
:100B600015D211D56FF47873B3EB625212D94FEAF4
:100B7000C12343F0004343EA505311F0004F23FADE
:100B800002F018BF404270474FF00000704750EA33
:100B9000013005D111F0004008BF6FF000407047F0
:100BA0004FF00000704700BF4FEA4102B2F1E0434E
:100BB00024BFB3F5001CDCF1FE5C0DD901F0004C44
:100BC0004FEAC0024CEA5070B2F1004F40EB830094
:100BD00008BF20F00100704711F0804F21D113F1C0
:100BE0003872BCBF01F00040704741F480114FEAF9
:100BF0005252C2F11802C2F1200C10FA0CF320FA82
:100C000002F018BF40F001004FEAC1234FEAD3239E
:100C100003FA0CFC40EA0C0023FA02F34FEA430308
:100C2000CCE77FEA625307D150EA01331EBF4FF091
:100C3000FE4040F44000704701F0004040F0FE40AC
:100C400040F40000704700BF53B94AB9002908BFFB
:100C500000281CBF4FF0FF314FF0FF3000F088B983
:100C6000ADF1080C6DE904CE00F006F8DDF804E003
:100C7000DDE9022304B070472DE9F047089D8E4658
:100C800004468846002B4AD18A42174662D9B2FAF6
:100C900082F64EB1C6F1200301FA06F820FA03F3FA
:100CA000B74043EA0808B4404FEA174E1FFA87FCE2
:100CB000B8FBFEF1230C0EFB118843EA084301FB4D
:100CC0000CF29A4209D9FB1801F1FF3080F0EA805A
:100CD0009A4240F2E78002393B449A1AA3B2B2FB2F
:100CE000FEF00EFB102243EA024300FB0CFC9C4585
:100CF00009D9FB1800F1FF3280F0D6809C4540F204
:100D0000D3803B44023840EA0140A3EB0C030021AE
:100D10001DB1F3400022C5E90032BDE8F0878B42E7
:100D200005D90DB1C5E9000100210846F5E7B3FA80
:100D300083F1002946D1734502D3824200F2058136
:100D4000841A6EEB030201209046002DE5D0C5E920
:100D50000048E2E7002A00F09080B2FA82F6002E06
:100D600040F0A4808A1A030C4FEA174E80B2BCB23E
:100D70000121B2FBFEFC0EFB1C2243EA024304FBF2
:100D80000CF29A4207D9FB180CF1FF3802D29A42B2
:100D900000F2E080C4469B1AB3FBFEF20EFB123356
:100DA00040EA034302FB04F49C4207D9FB1802F11A
:100DB000FF3002D29C4200F2CA8002461B1B42EA6C
:100DC0000C40A5E7C1F120068B4022FA06F71F432D
:100DD0000EFA01F420FA06F32EFA06FE4FEA17493E
:100DE000234300FA01F81FFA87FCBEFBF9F01C0C44
:100DF00009FB10EE44EA0E4400FB0CFEA64502FA85
:100E000001F209D93C1900F1FF3A80F09C80A64517
:100E100040F2998002383C44A4EB0E041FFA83FE92
:100E2000B4FBF9F309FB13444EEA044403FB0CFC46
:100E3000A44508D93C1903F1FF3E80F08280A44507
:100E40007FD9023B3C4443EA0040A4EB0C04A0FBE6
:100E500002EC64457346E14662D35FD05DB1B8EB06
:100E6000030264EB090404FA06F622FA01F31E43B6
:100E7000CC40C5E9006400214FE7B1FBF2FC010C56
:100E800041EA0E4180B240EA01423B4638463C46C8
:100E9000B846BE462026B1FBF7F1A2EB080241EAB4
:100EA0000C4166E7014618E710462CE7C6F1200220
:100EB0002EFA02F3B740B14020FA02F24FEA174E81
:100EC0000A43B3FBFEF8BCB20EFB1833110C41EA27
:100ED000034108FB04F9B04089454FEA104380B252
:100EE0003ED9791808F1FF3C01D289451FD8A1EB02
:100EF0000901B1FBFEF909FB04F80EFB191192B2CE
:100F000042EA0142424529D2BA1809F1FF31C4D25E
:100F10004245C2D2A9F102013A44BEE7F0459DD252
:100F2000BEEB02036CEB070C0138E14696E7A7EB3A
:100F300009094944A8F1020CB1FBFEF909FB04F8C8
:100F4000DBE773467FE7504666E70846FDE63B442D
:100F5000023A33E7ACF1020C3B441CE749469CE7FC
:100F6000A1EB0901C446B1FBFEF909FB04F8C4E793
:100F7000704700BF80B582B000AF78607868FFF737
:100F800077F90346194678680CF042FE00BF08372F
:100F9000BD4680BD80B500AF00F0EEFC00F02EF83D
:100FA00000F02CF900F094F80CF074FD00F0C6F895
:100FB00000F0FAF8012210210E4801F0BDFE0E48A3
:100FC00005F0B6FE0C4806F0C7FA0B4800F044FFE7
:100FD0000346002B01D000F059FA09F063FF08F036
:100FE000A7FF0AF063F90AF091FA09F0A1FC00BF2B
:100FF000F5E700BF00080240E002002080B594B091
:1010000000AF07F120033022002118460DF0E9FF60
:1010100007F10C0300221A605A609A60DA601A61C4
:101020000023BB60284B1B6C274A43F0805313649A
:10103000254B1B6C03F08053BB60BB6800237B60B7
:10104000224B1B68214A43F4804313601F4B1B68EB
:1010500003F480437B607B6801233B624FF4803361
:101060007B620223BB634FF48003FB6319233B6461
:101070004FF4A8737B640223BB640723FB6407F16E
:101080002003184603F0DCF80346002B01D000F0E3
:10109000FDF90F23FB6002233B6100237B614FF4CA
:1010A000A053BB614FF48053FB6107F10C03052192
:1010B000184603F03DFB0346002B01D000F0E6F993
:1010C00000BF5037BD4680BD003802400070004070
:1010D00080B500AF174B184A1A60164B0C225A60A5
:1010E000144B00229A60134B0022DA60114B4FF42C
:1010F00020221A610F4B4FF480125A610D4B0022CF
:101100001A760C4B01225A760A4B00229A76094B2A
:101110000022DA76074B00221A77064B00225A7714
:10112000044800F0BFFC0346002B01D000F0AEF9EC
:1011300000BF80BDE00200200064004080B500AF29
:10114000174B184A1A60164B4FF482725A60144BB0
:1011500000229A60124B0022DA60114B00221A61C1
:101160000F4B00225A610E4B4FF400729A610C4BE8
:101170003022DA610A4B00221A62094B00225A62BD
:10118000074B00229A62064B0A22DA62044803F0F7
:10119000AFFC0346002B01D000F078F900BF80BD02
:1011A000080300200038004080B500AF114B124A00
:1011B0001A60104B4FF4E1325A600E4B00229A60D5
:1011C0000C4B0022DA600B4B00221A61094B0C22F7
:1011D0005A61084B00229A61064B0022DA610548E9
:1011E00003F094FF0346002B01D000F04FF900BF3D
:1011F00080BD00BF600300200014014080B58CB0AA
:1012000000AF07F11C0300221A605A609A60DA608E
:101210001A610023BB61644B1B6B634A43F01003EC
:101220001363614B1B6B03F01003BB61BB690023AD
:101230007B615D4B1B6B5C4A43F0040313635A4BA9
:101240001B6B03F004037B617B6900233B61564BFE
:101250001B6B554A43F080031363534B1B6B03F026
:1012600080033B613B690023FB604F4B1B6B4E4A85
:1012700043F0020313634C4B1B6B03F00203FB6050
:10128000FB680023BB60484B1B6B474A43F00803D5
:101290001363454B1B6B03F00803BB60BB68002363
:1012A0007B60414B1B6B404A43F0010313633E4B91
:1012B0001B6B03F001037B607B6800224C213B48E1
:1012C00001F03AFD00223021394801F035FD0022BD
:1012D0004FF48051374801F02FFD00224FF4E061B8
:1012E000354801F029FD4C23FB6101233B620023BB
:1012F0007B620023BB6207F11C0319462B4801F0F7
:1013000067FB3023FB6100233B6200237B6207F114
:101310001C031946254801F05BFB3023FB610123C8
:101320003B6200237B620023BB6207F11C0319466A
:101330001F4801F04DFB4FF48053FB6101233B62DA
:1013400000237B620023BB6207F11C031946194886
:1013500001F03EFB4FF4E063FB6101233B6200239D
:101360007B620023BB6207F11C031946124801F09F
:101370002FFB4FF46053FB614FF444133B62002397
:101380007B6207F11C0319460B4801F021FB002288
:101390000121282001F0E5FA282001F0FEFA00BF23
:1013A0003037BD4680BD00BF00380240001002400B
:1013B0000008024000040240000C024080B584B0E6
:1013C00000AF0346FB8000F03DFBF8602748FFF7C5
:1013D000D1FDFB88B3F5005F2FD0B3F5005F3FDC94
:1013E000B3F5006F03D0B3F5805F13D038E04FF44E
:1013F00000611F4801F088FC0346002B06D11D4AFE
:10140000FB6813601C4B01221A702AE01A4B002261
:101410001A7026E04FF48051154801F075FC034620
:10142000002B06D1154AFB681360154B01221A7078
:1014300017E0134B00221A7013E04FF400510C48D0
:1014400001F062FC0346002B06D10E4AFB681360D4
:101450000D4B01221A7004E00B4B00221A7000E0C1
:1014600000BF00BF1037BD4680BD00BFA8110108F6
:10147000000C0240740400206F0400207804002057
:10148000700400207C0400207104002080B400AFB0
:1014900072B600BF00BFFDE780B483B000AF002389
:1014A0007B60104B5B6C0F4A43F4804353640D4BDD
:1014B0005B6C03F480437B607B6800233B60094BDB
:1014C0001B6C084A43F080531364064B1B6C03F0FB
:1014D00080533B603B6800BF0C37BD465DF8047B22
:1014E000704700BF0038024080B58AB000AF786016
:1014F00007F1140300221A605A609A60DA601A61D8
:101500007B681B68214A93423BD100233B61204BFF
:101510001B6C1F4A43F0007313641D4B1B6C03F0DC
:1015200000733B613B690023FB60194B1B6B184A3E
:1015300043F008031363164B1B6B03F00803FB60B7
:10154000FB6803237B610223BB610023FB61032350
:101550003B6209237B6207F1140319460D4801F031
:1015600037FA00220021142001F0FBF9142001F0C9
:1015700014FA00220021152001F0F3F9152001F0E2
:101580000CFA00BF2837BD4680BD00BF0064004094
:1015900000380240000C024080B58AB000AF78608D
:1015A00007F1140300221A605A609A60DA601A6127
:1015B0007B681B68194A93422CD100233B61184B6E
:1015C0001B6C174A43F480431364154B1B6C03F4E4
:1015D00080433B613B690023FB60114B1B6B104A4E
:1015E00043F0020313630E4B1B6B03F00203FB601B
:1015F000FB684FF420437B610223BB610023FB6146
:1016000003233B6205237B6207F114031946054857
:1016100001F0DEF900BF2837BD4680BD003800402C
:10162000003802400004024080B58AB000AF786004
:1016300007F1140300221A605A609A60DA601A6196
:101640007B681B68194A93422BD100233B61184BDE
:101650005B6C174A43F020035364154B5B6C03F03B
:1016600020033B613B690023FB60114B1B6B104A5D
:1016700043F0040313630E4B1B6B03F00403FB6086
:10168000FB68C0237B610223BB610023FB61032352
:101690003B6208237B6207F114031946054801F0F9
:1016A00097F900BF2837BD4680BD00BF0014014038
:1016B000003802400008024080B400AF00BFFDE7E0
:1016C00080B400AF00BFFDE780B400AF00BFFDE70E
:1016D00080B400AF00BFFDE780B400AF00BFFDE7FE
:1016E00080B400AF00BFBD465DF8047B704780B496
:1016F00000AF00BFBD465DF8047B704780B400AF0B
:1017000000BFBD465DF8047B704780B500AF00F0B8
:1017100085F900BF80BD000080B500AF024800F031
:101720001FFE00BF80BD00BFE002002080B500AFFB
:10173000024800F015FE00BF80BD00BFE00200209F
:1017400080B500AF4FF4006001F010FB4FF4805003
:1017500001F00CFB4FF4005001F008FB00BF80BD0E
:1017600080B500AF024801F05DFC00BF80BD00BF46
:10177000B811002080B400AF01231846BD465DF8C3
:10178000047B704780B582B000AF786039600DF09F
:101790007BFC034616221A604FF0FF3318460837C9
:1017A000BD4680BD80B582B000AF78604FF0FF319C
:1017B0007868FFF7E7FF00BFFDE780B586B000AFB0
:1017C000F860B9607A6000237B610AE0AFF30080C3
:1017D0000146BB685A1CBA60CAB21A707B690133F1
:1017E0007B617A697B689A42F0DB7B681846183720
:1017F000BD4680BD80B586B000AFF860B9607A6044
:1018000000237B6109E0BB685A1CBA601B7818464C
:10181000AFF300807B6901337B617A697B689A4210
:10182000F1DB7B6818461837BD4680BD80B483B0B5
:1018300000AF78604FF0FF3318460C37BD465DF8B7
:10184000047B704780B483B000AF786039603B6838
:101850004FF400525A60002318460C37BD465DF81D
:10186000047B704780B483B000AF786001231846D2
:101870000C37BD465DF8047B704780B485B000AF7F
:10188000F860B9607A60002318461437BD465DF8E9
:10189000047B704780B586B000AF7860144A154B62
:1018A000D31A7B617B693B61134B1B68002B02D110
:1018B000114B124A1A60104B1A687B6813443A693C
:1018C0009A4207D20DF0E0FB03460C221A604FF05B
:1018D000FF3309E0084B1B68FB60074B1A687B6805
:1018E0001344054A1360FB6818461837BD4680BD8F
:1018F0000000022000040000A8030020081A0020B5
:1019000080B400AF064BD3F88830054A43F4700327
:10191000C2F8883000BFBD465DF8047B704700BF49
:1019200000ED00E0DFF834D0FFF7EAFF0C480D4986
:101930000D4A002302E0D458C4500433C4188C422A
:10194000F9D30A4A0A4C002301E013600432A24290
:10195000FBD30DF09FFBFFF71DFB7047000002203B
:1019600000000020C4020020C4230108C40200209B
:10197000081A0020FEE7000080B500AF0E4B1B6880
:101980000D4A43F4007313600B4B1B680A4A43F47F
:1019900080631360084B1B68074A43F4807313602D
:1019A000032000F0D3FF0F2000F008F8FFF774FDCC
:1019B0000023184680BD00BF003C024080B582B0C5
:1019C00000AF7860124B1A68124B1B7819464FF41F
:1019D0007A73B3FBF1F3B2FBF3F3184600F0EBFFBD
:1019E0000346002B01D001230EE07B680F2B0AD8A1
:1019F000002279684FF0FF3000F0B3FF064A7B68A1
:101A00001360002300E0012318460837BD4680BD5F
:101A100000000020080000200400002080B400AF77
:101A2000064B1B781A46064B1B681344044A136086
:101A300000BFBD465DF8047B704700BF0800002072
:101A4000AC03002080B400AF034B1B681846BD46B2
:101A50005DF8047B704700BFAC03002080B584B004
:101A600000AF7860FFF7EEFFB8607B68FB60FB6853
:101A7000B3F1FF3F05D00A4B1B781A46FB681344AD
:101A8000FB6000BFFFF7DEFF0246BB68D31AFA68AF
:101A90009A42F7D800BF00BF1037BD4680BD00BFD7
:101AA0000800002080B584B000AF78607B68002B10
:101AB00001D10123EDE07B6893F82030DBB2002BED
:101AC00002D17868FFF710FD7B681B681A687B6895
:101AD0001B6842F001021A60FFF7B4FFF86012E0E1
:101AE000FFF7B0FF0246FB68D31A0A2B0BD97B68BD
:101AF0005B6A43F400327B685A627B68052283F894
:101B000020200123C5E07B681B685B6803F00103AC
:101B1000002BE5D07B681B681A687B681B6822F085
:101B200002021A60FFF78EFFF86012E0FFF78AFFEB
:101B30000246FB68D31A0A2B0BD97B685B6A43F415
:101B400000327B685A627B68052283F820200123DB
:101B50009FE07B681B685B6803F00203002BE5D104
:101B60007B681B7E012B08D17B681B681A687B6829
:101B70001B6842F080021A6007E07B681B681A68E5
:101B80007B681B6822F080021A607B685B7E012BF9
:101B900008D17B681B681A687B681B6842F04002AA
:101BA0001A6007E07B681B681A687B681B6822F074
:101BB00040021A607B689B7E012B08D17B681B6802
:101BC0001A687B681B6842F020021A6007E07B6895
:101BD0001B681A687B681B6822F020021A607B6809
:101BE000DB7E012B08D17B681B681A687B681B6849
:101BF00022F010021A6007E07B681B681A687B6895
:101C00001B6842F010021A607B681B7F012B08D111
:101C10007B681B681A687B681B6842F008021A60C0
:101C200007E07B681B681A687B681B6822F0080263
:101C30001A607B685B7F012B08D17B681B681A6880
:101C40007B681B6842F004021A6007E07B681B682F
:101C50001A687B681B6822F004021A607B689A6825
:101C60007B68DB681A437B681B691A437B685B6986
:101C700042EA03017B685B685A1E7B681B680A4363
:101C8000DA617B6800225A627B68012283F8202097
:101C9000002318461037BD4680BD000080B487B0D1
:101CA00000AF786039607B6893F82030FB75FB7D6E
:101CB000012B03D0FB7D022B40F0BE80654B3B61C6
:101CC0003B69D3F8003243F001023B69C3F80022BC
:101CD0003B69D3F8003223F47C523B69C3F80022FD
:101CE0003B69D3F800223B685B6A1B021A433B69DD
:101CF000C3F800223B685B6903F01F03012202FA6C
:101D000003F3FB603B69D3F81C22FB68DB431A40FA
:101D10003B69C3F81C223B68DB69002B23D13B697C
:101D2000D3F80C22FB68DB431A403B69C3F80C2252
:101D30003B68DB6819043B685B689BB23A68526990
:101D400019433B69483243F832103B689B681904D9
:101D50003B681B689AB23B685B690A433969483340
:101D6000DB000B445A603B68DB69012B22D13B69E5
:101D7000D3F80C22FB681A433B69C3F80C223B687A
:101D80001B6819043B685B689BB23A685269194347
:101D90003B69483243F832103B689B6819043B6842
:101DA000DB689AB23B685B690A4339694833DB00F8
:101DB0000B445A603B689B69002B09D13B69D3F8FF
:101DC0000422FB68DB431A403B69C3F8042207E0A6
:101DD0003B69D3F80422FB681A433B69C3F8042229
:101DE0003B681B69002B09D13B69D3F81422FB68BF
:101DF000DB431A403B69C3F8142207E03B69D3F880
:101E00001422FB681A433B69C3F814223B681B6A1F
:101E1000012B07D13B69D3F81C22FB681A433B69AD
:101E2000C3F81C223B69D3F8003223F001023B695E
:101E3000C3F80022002306E07B685B6A43F480223B
:101E40007B685A62012318461C37BD465DF8047B47
:101E5000704700BF0064004080B584B000AF786078
:101E60007B6893F82030DBB2012B2ED17B680222F5
:101E700083F820207B681B681A687B681B6822F047
:101E800001021A60FFF7DEFDF86012E0FFF7DAFDED
:101E90000246FB68D31A0A2B0BD97B685B6A43F4B2
:101EA00000327B685A627B68052283F82020012378
:101EB00012E07B681B685B6803F00103002BE5D12F
:101EC0007B6800225A62002306E07B685B6A43F469
:101ED00000227B685A62012318461037BD4680BD38
:101EE00080B489B000AFF860B9607A603B60FB688D
:101EF00093F82030FB77FB681B689B68BB61FB7F16
:101F0000012B03D0FB7F022B40F0AD80BB6903F0B7
:101F10008063002B0AD1BB6903F00063002B05D15D
:101F2000BB6903F08053002B00F09580BB691B0E4A
:101F300003F003037B6101227B699A403B681A60CE
:101F4000BB689B68002B0DD1BB681B685A05BB683A
:101F5000DB68F96809681A437B6918331B010B4475
:101F60001A600FE0BB685B68DA00BB689B681A43C5
:101F7000BB68DB68F96809681A437B6918331B0181
:101F80000B441A60FB681968BB681A697B691833CF
:101F90001B010B4404331A60BB681B7D012B11D15C
:101FA000FB681A687B6918331B01134404331B68F0
:101FB000FA68116843F480727B6918331B010B4483
:101FC00004331A607B6807331B781A067B68063374
:101FD0001B781B041A437B6805331B781B021343D1
:101FE0007A68043212781046FA68116843EA0002EF
:101FF0007B691B010B4403F5C6731A607B680333CE
:102000001B781A067B6802331B781B041A437B6813
:1020100001331B781B0213437A6812781046FA6862
:10202000116843EA00027B691B010B4403F5C4738A
:102030001A60FB681A687B6918331B0113441B681C
:10204000FA68116843F001027B6918331B010B44E5
:102050001A6000230EE0FB685B6A43F40012FB6821
:102060005A62012306E0FB685B6A43F48022FB6846
:102070005A62012318462437BD465DF8047B704739
:1020800080B487B000AFF860B9607A603B60FB68ED
:1020900093F82030FB75FB7D012B03D0FB7D022BD9
:1020A00040F00381BB68002B0ED1FB681B68DB6826
:1020B00003F00303002B16D1FB685B6A43F40012A4
:1020C000FB685A620123F7E0FB681B681B6903F099
:1020D0000303002B07D1FB685B6A43F40012FB6823
:1020E0005A620123E8E0FB681A68BB681B331B01D6
:1020F00013441B6803F004027B689A607B689B684A
:10210000002B0CD1FB681A68BB681B331B011344FE
:102110001B685B0DC3F30A027B681A600BE0FB6867
:102120001A68BB681B331B0113441B68DB0823F0D0
:1021300060427B685A60FB681A68BB681B331B01EE
:1021400013441B6803F002027B68DA60FB681A68BC
:10215000BB681B331B01134404331B6803F00803E3
:10216000002B03D07B6808221A610BE0FB681A6819
:10217000BB681B331B01134404331B6803F00F02BD
:102180007B681A61FB681A68BB681B331B01134428
:1021900004331B681B0ADAB27B689A61FB681A6811
:1021A000BB681B331B01134404331B681B0C9AB21E
:1021B0007B685A61FB681A68BB681B01134403F50E
:1021C000DC731B68DAB23B681A70FB681A68BB687C
:1021D0001B01134403F5DC731B681A0A3B680133C7
:1021E000D2B21A70FB681A68BB681B01134403F56E
:1021F000DC731B681A0C3B680233D2B21A70FB689E
:102200001A68BB681B01134403F5DC731B681A0EC4
:102210003B680333D2B21A70FB681A68BB681B01B3
:10222000134403F5DE731A683B680433D2B21A70A4
:10223000FB681A68BB681B01134403F5DE731B6857
:102240001A0A3B680533D2B21A70FB681A68BB6879
:102250001B01134403F5DE731B681A0C3B6806333D
:10226000D2B21A70FB681A68BB681B01134403F5ED
:10227000DE731B681A0E3B680733D2B21A70BB6854
:10228000002B08D1FB681B68DA68FB681B6842F00A
:102290002002DA6007E0FB681B681A69FB681B68AC
:1022A00042F020021A61002306E0FB685B6A43F4F7
:1022B0008022FB685A62012318461C37BD465DF830
:1022C000047B704780B485B000AF7860396000232C
:1022D000FB607B6893F82030FB72FB7A012B02D005
:1022E000FB7A022B0FD13B68002B06D17B681B6861
:1022F000DB6803F00303FB6005E07B681B681B6978
:1023000003F00303FB60FB6818461437BD465DF815
:10231000047B704780B485B000AF786039607B681B
:1023200093F82030FB73FB7B012B02D0FB7B022B4D
:1023300009D17B681B6859697B681B683A680A4346
:102340005A61002306E07B685B6A43F480227B6865
:102350005A62012318461437BD465DF8047B704766
:1023600080B58AB000AF786000237B627B681B6811
:102370005B693B627B681B685B68FB617B681B6811
:102380009B68BB617B681B68DB687B617B681B6843
:102390001B693B617B681B689B69FB603B6A03F0C0
:1023A0000103002B7CD0BB6903F00103002B23D079
:1023B0007B681B6801229A60BB6903F00203002B53
:1023C00003D0786800F083F916E0BB6903F00403DA
:1023D000002B04D07B6A43F400637B620CE0BB6992
:1023E00003F00803002B04D07B6A43F480537B6224
:1023F00002E0786800F089F9BB6903F48073002B70
:1024000024D07B681B684FF480729A60BB6903F428
:102410000073002B03D0786800F063F916E0BB6905
:1024200003F48063002B04D07B6A43F400537B6287
:102430000CE0BB6903F40063002B04D07B6A43F417
:1024400080437B6202E0786800F069F9BB6903F4BD
:102450008033002B24D07B681B684FF480329A6055
:10246000BB6903F40033002B03D0786800F043F914
:1024700016E0BB6903F48023002B04D07B6A43F48D
:1024800000437B620CE0BB6903F40023002B04D003
:102490007B6A43F480337B6202E0786800F049F99C
:1024A0003B6A03F00803002B0CD07B6903F0100398
:1024B000002B07D07B6A43F400737B627B681B6848
:1024C0001022DA603B6A03F00403002B0BD07B6917
:1024D00003F00803002B06D07B681B680822DA6033
:1024E000786800F030F93B6A03F00203002B09D052
:1024F0007B681B68DB6803F00303002B02D078685D
:1025000005F052F83B6A03F04003002B0CD03B6906
:1025100003F01003002B07D07B6A43F480637B62D7
:102520007B681B6810221A613B6A03F02003002BB2
:102530000BD03B6903F00803002B06D07B681B68B7
:1025400008221A61786800F008F93B6A03F010036A
:10255000002B09D07B681B681B6903F00303002B69
:1025600002D0786804F00AFC3B6A03F40033002BC5
:102570000BD0FB6903F01003002B06D07B681B68AF
:1025800010225A60786800F0F2F83B6A03F4803356
:10259000002B0BD0FB6903F00803002B06D07B68EF
:1025A0001B6808225A60786800F0EBF83B6A03F475
:1025B0000043002B7BD0FB6903F00403002B72D097
:1025C0003B6A03F48073002B08D0FB6803F001031F
:1025D000002B03D07B6A43F001037B623B6A03F468
:1025E0000073002B08D0FB6803F00203002B03D01C
:1025F0007B6A43F002037B623B6A03F48063002B37
:1026000008D0FB6803F00403002B03D07B6A43F07F
:1026100004037B623B6A03F40063002B43D0FB6836
:1026200003F07003002B3ED0FB6803F07003602BB7
:102630002BD0602B2ED8502B22D0502B2AD8402BB9
:1026400019D0402B26D8302B10D0302B22D8102B6D
:1026500002D0202B05D01DE07B6A43F008037B628B
:1026600019E07B6A43F010037B6214E07B6A43F05D
:1026700020037B620FE07B6A43F040037B620AE049
:102680007B6A43F080037B6205E07B6A43F48073DE
:102690007B6200E000BF7B681B689A697B681B68EF
:1026A00022F070029A617B681B6804225A607B6A80
:1026B000002B08D07B685A6A7B6A1A437B685A628F
:1026C000786800F068F800BF2837BD4680BD80B448
:1026D00083B000AF786000BF0C37BD465DF8047B67
:1026E000704780B483B000AF786000BF0C37BD4640
:1026F0005DF8047B704780B483B000AF786000BFA2
:102700000C37BD465DF8047B704780B483B000AFE2
:10271000786000BF0C37BD465DF8047B704780B41D
:1027200083B000AF786000BF0C37BD465DF8047B16
:10273000704780B483B000AF786000BF0C37BD46EF
:102740005DF8047B704780B483B000AF786000BF51
:102750000C37BD465DF8047B704780B483B000AF92
:10276000786000BF0C37BD465DF8047B704780B4CD
:1027700083B000AF786000BF0C37BD465DF8047BC6
:10278000704780B483B000AF786000BF0C37BD469F
:102790005DF8047B704780B483B000AF786000BF01
:1027A0000C37BD465DF8047B7047000080B485B0EF
:1027B00000AF78607B6803F00703FB600C4BDB68BD
:1027C000BB60BA684FF6FF031340BB60FB681A0298
:1027D000BB68134343F0BF6343F40033BB60044A58
:1027E000BB68D36000BF1437BD465DF8047B7047FB
:1027F00000ED00E080B400AF044BDB681B0A03F07F
:1028000007031846BD465DF8047B704700ED00E005
:1028100080B483B000AF0346FB7197F90730002BFB
:102820000BDBFB7903F01F02074997F907305B09BF
:10283000012000FA02F241F8232000BF0C37BD4608
:102840005DF8047B704700BF00E100E080B483B016
:1028500000AF03463960FB7197F90730002B0ADBA4
:102860003B68DAB20C4997F907301201D2B20B4437
:1028700083F800230AE03B68DAB20849FB7903F0E9
:102880000F03043B1201D2B20B441A7600BF0C377F
:10289000BD465DF8047B704700E100E000ED00E01C
:1028A00080B489B000AFF860B9607A60FB6803F06B
:1028B0000703FB61FB69C3F10703042B28BF042353
:1028C000BB61FB690433062B02D9FB69033B00E0C3
:1028D00000237B614FF0FF32BB6902FA03F3DA4356
:1028E000BB681A407B699A404FF0FF317B6901FA5F
:1028F00003F3D9437B680B40134318462437BD4686
:102900005DF8047B7047000080B582B000AF78604E
:102910007B68013BB3F1807F01D301230FE00A4ABA
:102920007B68013B53600F214FF0FF30FFF78EFFB4
:10293000054B00229A60044B07221A6000231846B8
:102940000837BD4680BD00BF10E000E080B582B012
:1029500000AF78607868FFF729FF00BF0837BD46F1
:1029600080BD80B586B000AF0346B9607A60FB7366
:1029700000237B61FFF73EFF78617A68B968786968
:10298000FFF78EFF024697F90F3011461846FFF702
:102990005DFF00BF1837BD4680BD80B582B000AF77
:1029A0000346FB7197F907301846FFF731FF00BF68
:1029B0000837BD4680BD80B582B000AF78607868CA
:1029C000FFF7A2FF034618460837BD4680BD00004A
:1029D00080B489B000AF7860396000237B61002348
:1029E0003B610023BB610023FB616BE10122FB69BA
:1029F00002FA03F37B613B681B687A6913403B6111
:102A00003A697B699A4240F05A813B685B6803F0FF
:102A10000303012B05D03B685B6803F00303022B23
:102A200030D17B689B68BB61FB695B00032202FAC3
:102A300003F3DB43BA691340BB613B68DA68FB69A7
:102A40005B0002FA03F3BA691343BB617B68BA699E
:102A50009A607B685B68BB610122FB6902FA03F341
:102A6000DB43BA691340BB613B685B681B0903F039
:102A70000102FB6902FA03F3BA691343BB617B6885
:102A8000BA695A603B685B6803F00303032B17D0F5
:102A90007B68DB68BB61FB695B00032202FA03F31E
:102AA000DB43BA691340BB613B689A68FB695B0012
:102AB00002FA03F3BA691343BB617B68BA69DA604F
:102AC0003B685B6803F00303022B23D1FB69DA0840
:102AD0007B68083253F82230BB61FB6903F00703BF
:102AE0009B000F2202FA03F3DB43BA691340BB6178
:102AF0003B681A69FB6903F007039B0002FA03F3C2
:102B0000BA691343BB61FB69DA087B680832B969AB
:102B100043F822107B681B68BB61FB695B000322E2
:102B200002FA03F3DB43BA691340BB613B685B689D
:102B300003F00302FB695B0002FA03F3BA69134373
:102B4000BB617B68BA691A603B685B6803F4403319
:102B5000002B00F0B4800023FB60604B5B6C5F4A8D
:102B600043F4804353645D4B5B6C03F48043FB6030
:102B7000FB685B4AFB699B08023352F82330BB6158
:102B8000FB6903F003039B000F2202FA03F3DB430C
:102B9000BA691340BB617B68524A93422BD07B6871
:102BA000514A934225D07B68504A93421FD07B689C
:102BB0004F4A934219D07B684E4A934213D07B68A8
:102BC0004D4A93420DD07B684C4A934207D07B68B4
:102BD0004B4A934201D107230EE008230CE0062361
:102BE0000AE0052308E0042306E0032304E00223AF
:102BF00002E0012300E00023FA6902F003029200E0
:102C00009340BA691343BB613549FB699B080233A2
:102C1000BA6941F823203B4B9B68BB613B69DB43AE
:102C2000BA691340BB613B685B6803F48013002BF7
:102C300003D0BA693B691343BB61324ABB699360F5
:102C4000304BDB68BB613B69DB43BA691340BB6156
:102C50003B685B6803F40013002B03D0BA693B693F
:102C60001343BB61274ABB69D360264B5B68BB61DA
:102C70003B69DB43BA691340BB613B685B6803F4A3
:102C80000033002B03D0BA693B691343BB611D4A73
:102C9000BB6953601B4B1B68BB613B69DB43BA6973
:102CA0001340BB613B685B6803F48033002B03D0A7
:102CB000BA693B691343BB61124ABB691360FB6984
:102CC0000133FB61FB690F2B7FF690AE00BF00BFA5
:102CD0002437BD465DF8047B704700BF00380240D2
:102CE0000038014000000240000402400008024099
:102CF000000C024000100240001402400018024084
:102D0000001C0240003C014080B485B000AF7860F8
:102D10000B467B807B681A697B881340002B02D0AE
:102D20000123FB7301E00023FB73FB7B1846143780
:102D3000BD465DF8047B704780B483B000AF786017
:102D40000B467B8013467B707B78002B03D07A8800
:102D50007B689A6103E07B881A047B689A6100BFF4
:102D60000C37BD465DF8047B7047000080B582B02B
:102D700000AF0346FB80084B5A69FB881340002BC9
:102D800006D0054AFB885361FB881846FEF716FB00
:102D900000BF0837BD4680BD003C014080B586B00D
:102DA00002AF78607B68002B01D1012301E17B68D1
:102DB0001B68BB607B6893F89534DBB2002B06D1AF
:102DC0007B68002283F8942478680BF069F87B68AC
:102DD000032283F89524BB68B3F1A04F02D17B682E
:102DE00000229A717B681B68184602F06AFD7B68B6
:102DF00018687B681A7C8DF8002004330ECB02F033
:102E000049FC0346002B05D07B68022283F89524F9
:102E10000123CEE07B681B680021184602F062FDAA
:102E20000346002B05D07B68022283F895240123FA
:102E3000BFE00023FB734AE0FA7B79681346DB00AE
:102E400013449B000B44153301221A70FA7B7968F6
:102E50001346DB0013449B000B441433FA7B1A70B7
:102E6000FA7BFB7B98B279681346DB0013449B0026
:102E70000B442E3302461A80FA7B79681346DB0036
:102E800013449B000B44183300221A70FA7B7968B4
:102E90001346DB0013449B000B441C3300221A60D2
:102EA000FA7B79681346DB0013449B000B44203304
:102EB00000221A60FA7B79681346DB0013449B00FA
:102EC0000B44243300221A60FB7B0133FB737B68C5
:102ED0001B79FA7B9A42AFD30023FB7344E0FA7B61
:102EE00079681346DB0013449B000B4403F255231F
:102EF00000221A70FA7B79681346DB0013449B00AA
:102F00000B4403F51573FA7B1A70FA7B7968134644
:102F1000DB0013449B000B4403F5167300221A7068
:102F2000FA7B79681346DB0013449B000B4403F5DE
:102F3000177300221A60FA7B79681346DB0013448A
:102F40009B000B4403F5187300221A60FA7B796822
:102F50001346DB0013449B000B4403F51973002256
:102F60001A60FB7B0133FB737B681B79FA7B9A4207
:102F7000B5D37B6818687B681A7C8DF80020043311
:102F80000ECB02F0FBFC0346002B05D07B6802222F
:102F900083F8952401230CE07B6800225A747B6837
:102FA000012283F895247B681B68184603F045FDD1
:102FB000002318461037BD4680BD80B584B000AFF1
:102FC00078607B681B68FB607B6893F89434012B06
:102FD00001D1022322E07B68012283F89424FB685C
:102FE000DB6803F04003002B09D07B685B7B012B7F
:102FF00005D1FB689B6B43F48032FB689A637B6866
:103000001B68184602F04CFC7B681B68184603F0EE
:10301000F3FC7B68002283F89424002318461037C1
:10302000BD4680BD90B58DB000AF78607B681B68F1
:103030003B623B6AFB617B681B68184603F0B1FD8D
:103040000346002B40F08C847B681B68184603F015
:1030500015FD0346002B00F08284FB6903F5006335
:103060009B681B0AC3F30D027B68C3F8D4247B68FA
:103070001B68184603F002FD034603F00203022B0F
:1030800007D17B681B685A697B681B6802F00202E3
:103090005A617B681B68184603F0F0FC034603F096
:1030A0001003102B61D17B681B689A697B681B68D1
:1030B00022F010029A613B6A1B6ABB61BB6903F094
:1030C0000F021346DB0013449B0003F514737A6868
:1030D000134404337B61BB6903F4F013B3F5802F11
:1030E00024D1BA6947F6F0731340002B35D07B69C1
:1030F000D968BB691B099BB2C3F30A039BB21A468A
:10310000386A03F027FB7B69DA68BB691B09C3F3E4
:103110000A031A447B69DA607B695A69BB691B0937
:10312000C3F30A031A447B695A6116E0BB6903F4CE
:10313000F013B3F5402F10D17B6803F29C430822B3
:103140001946386A03F006FB7B695A69BB691B099B
:10315000C3F30A031A447B695A617B681B689A6946
:103160007B681B6842F010029A617B681B681846F6
:1031700003F084FC034603F40023B3F5002F40F072
:10318000A78000237B627B681B68184603F089FCDC
:10319000B86299E0BB6A03F00103002B00F08E8057
:1031A0007B681B687A6AD2B21146184603F0ADFC00
:1031B00038613B6903F00103002B0CD07B6A5A0194
:1031C000FB69134403F530631A4601239360796A5F
:1031D000786800F0A3FE3B6903F00803002B0CD0D5
:1031E0007B6A5A01FB69134403F530631A460823CE
:1031F0009360796A786800F079FF3B6903F0100307
:10320000002B08D07B6A5A01FB69134403F5306335
:103210001A46102393603B6903F00203002B30D061
:103220003B6A5B6903F08003802B09D1FB6903F5DE
:1032300000635B68FA6902F5006243F480635360DF
:103240007A6A1346DB0013449B0003F514737A6813
:10325000134404337B617B69DB78012B08D17B69E4
:103260000022DA707B6ADBB2194678680AF01EFF2A
:103270007B6A5A01FB69134403F530631A46022343
:1032800093603B6903F02003002B08D07B6A5A014E
:10329000FB69134403F530631A46202393603B69AE
:1032A00003F40053002B09D07B6A5A01FB691344D5
:1032B00003F530631A464FF4005393607B6A013381
:1032C0007B62BB6A5B08BB62BB6A002B7FF462AFA8
:1032D0007B681B68184603F0D1FB034603F4802388
:1032E000B3F5802F40F0DB807B681B68184603F045
:1032F000F2FBB86200237B62CDE0BB6A03F00103FE
:10330000002B00F0C2807B681B687A6AD2B211463B
:10331000184603F018FC38613B6903F00103002BE9
:1033200057D07B6A03F00F03012202FA03F3FB601C
:10333000FB6903F500635A6BFB68DB43F96901F530
:10334000006113404B637B6A5A01FB69134403F528
:1033500010631A46012393607B689B79012B32D15D
:1033600079687A6A1346DB0013449B000B442033D0
:10337000196878687A6A1346DB0013449B0003449B
:103380001C331B68194478687A6A1346DB001344BF
:103390009B000344203319607B6A002B13D17968AA
:1033A0007A6A1346DB0013449B000B4424331B68EA
:1033B000002B08D17B6818687B6803F29C431A468F
:1033C000012103F01FFC7B6ADBB2194678680AF022
:1033D000E8FD3B6903F00803002B08D07B6A5A0123
:1033E000FB69134403F510631A46082393603B6995
:1033F00003F01003002B08D07B6A5A01FB691344C9
:1034000003F510631A46102393603B6903F04003F1
:10341000002B08D07B6A5A01FB69134403F5106343
:103420001A46402393603B6903F00203002B23D02C
:10343000796A386A02F006FC7A6A1346DB001344A4
:103440009B0010337A68134404337B617B69DB781B
:10345000012B08D17B690022DA707B6ADBB2194646
:1034600078680AF035FE7B6A5A01FB69134403F55C
:1034700010631A46022393603B6903F08003002B1C
:1034800003D0796A786800F0BDFC7B6A01337B6207
:10349000BB6A5B08BB62BB6A002B7FF42EAF7B6804
:1034A0001B68184603F0EAFA034603F00043B3F141
:1034B000004F22D1FB6903F500635B68FA6902F5EE
:1034C000006223F0010353607B6893F8CC34012B36
:1034D00008D17B68002283F8CC240021786800F0B2
:1034E000A3FE02E078680AF0D3FD7B681B685A6986
:1034F0007B681B6802F000425A617B681B681846B3
:1035000003F0BCFA034603F40063B3F5006F12D175
:10351000FB6903F500639B6803F00103012B02D1F3
:1035200078680AF08FFD7B681B685A697B681B68A6
:1035300002F400625A617B681B68184603F09EFA29
:10354000034603F48053B3F5805F40F0B780FB6916
:1035500003F500635B68FA6902F5006223F001037A
:1035600053607B681B681021184602F06BFB002338
:10357000FB6246E0FB6A5A01FB69134403F51063E2
:103580001A464FF67F339360FB6A5A01FB69134476
:1035900003F510631B68FA6A5101FA690A4402F5DF
:1035A000106223F400131360FB6A5A01FB69134491
:1035B00003F530631A464FF67F339360FB6A5A0176
:1035C000FB69134403F530631B68FA6A5101FA6919
:1035D0000A4402F5306223F400131360FB6A5A01B7
:1035E000FB69134403F530631B68FA6A5101FA69F9
:1035F0000A4402F5306243F000631360FB6A013352
:10360000FB627B681B791A46FB6A9342B2D3FB6963
:1036100003F50063DB69FA6902F5006243F0011308
:10362000D3617B68DB7B002B16D0FB6903F500635D
:10363000D3F88430FA6902F5006243F00B03C2F854
:103640008430FB6903F500635B6CFA6902F5006284
:1036500043F00B03536415E0FB6903F500635B69FA
:10366000FA6902F5006243F4005343F02B035361FF
:10367000FB6903F500631B69FA6902F5006243F018
:103680000B031361FB6903F500631B68FA6902F51C
:10369000006223F4FE6313607B6818687B68997985
:1036A0007B6803F29C431A4603F0ACFA7B681B6804
:1036B0005A697B681B6802F480525A617B681B68F8
:1036C000184603F0DBF9034603F40053B3F5005F3B
:1036D00023D17B681B68184603F071FA7B681B686E
:1036E000184602F028FB03461A467B68DA717B68AD
:1036F0001C6801F0C9F901467B68DB791A4620464F
:1037000002F02CF878680AF074FC7B681B685A6930
:103710007B681B6802F400525A617B681B6818467C
:1037200003F0ACF9034603F00803082B0AD17868CC
:103730000AF051FC7B681B685A697B681B6802F0C1
:1037400008025A617B681B68184603F097F9034624
:1037500003F08003802B23D13B6A9B6923F0800216
:103760003B6A9A6101237B6214E079687A6A1346A6
:10377000DB0013449B000B4403F257231B78012BFF
:1037800005D17B6ADBB21946786800F00AFB7B6AD8
:1037900001337B627B681B791A467B6A9342E4D3D0
:1037A0007B681B68184603F069F9034603F480132D
:1037B000B3F5801F3CD101237B622BE07B6A5A0169
:1037C000FB69134403F510631B68BB6179687A6A6F
:1037D0001346DB0013449B000B4418331B78012B6A
:1037E00015D1BB69002B12DA79687A6A1346DB00BF
:1037F00013449B000B44173301221A707B6ADBB21F
:1038000063F07F03DBB21946786800F0CAFA7B6A7E
:1038100001337B627B681B791A467B6A9342CDD366
:103820007B681B685A697B681B6802F480125A61C6
:103830007B681B68184603F021F9034603F4001364
:10384000B3F5001F56D101237B6245E07B6A5A0124
:10385000FB69134403F530631B68BB6179687A6ABE
:103860001346DB0013449B000B4403F516731B78CF
:10387000012B2ED1BB69002B2BDABB691A0C7B689C
:10388000D3F8D434534003F00103002B21D17968DD
:103890007A6A1346DB0013449B000B4403F2572360
:1038A00001221A703B6A9B6943F080023B6A9A616D
:1038B0003B6A5B6903F08003002B0AD1FB6903F5C7
:1038C00000635B68FA6902F5006243F400735360B9
:1038D00008E07B6A01337B627B681B791A467B6A4E
:1038E0009342B3D37B681B685A697B681B6802F4F8
:1038F00000125A617B681B68184603F0BFF8034644
:1039000003F08043B3F1804F0AD178680AF0F2FBEC
:103910007B681B685A697B681B6802F080425A61A9
:103920007B681B68184603F0A9F8034603F00403FC
:10393000042B15D17B681B685B68BB61BB6903F016
:103940000403002B02D078680AF0E2FB7B681B6856
:1039500059687B681B68BA690A435A6000E000BF77
:103960003437BD4690BD80B582B000AF78600B465D
:10397000FB707B6893F89434012B01D1022312E091
:103980007B68012283F894247B68FA785A747B68F8
:103990001B68FA781146184603F008F87B68002285
:1039A00083F89424002318460837BD4680BD80B5AF
:1039B00084B000AF7860084611461A460346FB7093
:1039C0000B463B801346BB700023FB7297F9033014
:1039D000002B0FDAFB7803F00F021346DB001344D1
:1039E0009B0010337A6813440433FB60FB680122A8
:1039F0005A700FE0FB7803F00F021346DB0013440C
:103A00009B0003F514737A6813440433FB60FB686E
:103A100000225A70FB7803F00F03DAB2FB681A70C9
:103A20003B88C3F30A02FB689A60FB68BA781A7194
:103A3000FB685B78002B04D0FB681B781A46FB6898
:103A40005A83BB78022B02D1FB6800225A717B6833
:103A500093F89434012B01D102230EE07B680122FC
:103A600083F894247B681B68F968184602F088F98B
:103A70007B68002283F89424FB7A18461037BD46F1
:103A800080BD80B584B000AF78600B46FB7097F9BD
:103A90000330002B0FDAFB7803F00F021346DB0034
:103AA00013449B0010337A6813440433FB60FB68B3
:103AB00001225A700FE0FB7803F00F021346DB007F
:103AC00013449B0003F514737A6813440433FB60BA
:103AD000FB6800225A70FB7803F00F03DAB2FB6830
:103AE0001A707B6893F89434012B01D102230EE005
:103AF0007B68012283F894247B681B68F968184668
:103B000002F0C6F97B68002283F89424002318464B
:103B10001037BD4680BD80B586B000AFF8607A60D2
:103B20003B600B46FB72FB7A03F00F021346DB008F
:103B300013449B0003F51473FA68134404337B6148
:103B40007B697A68DA607B693A681A617B6900226E
:103B50005A617B6900225A70FB7A03F00F03DAB2D4
:103B60007B691A70FB689B79012B02D17A687B69AB
:103B7000DA61FB681868FB689B791A46796902F07C
:103B800063FA002318461837BD4680BD80B483B061
:103B900000AF78600B46FB70FB7803F00F0279688A
:103BA0001346DB0013449B000B4403F51A731B6898
:103BB00018460C37BD465DF8047B704780B586B06B
:103BC00000AFF8607A603B600B46FB72FB7A03F053
:103BD0000F021346DB0013449B001033FA681344B2
:103BE00004337B617B697A68DA607B693A681A61C1
:103BF0007B6900225A617B6901225A70FB7A03F0CB
:103C00000F03DAB27B691A70FB689B79012B02D132
:103C10007A687B69DA61FB681868FB689B791A46E9
:103C2000796902F011FA002318461837BD4680BDA5
:103C300080B584B000AF78600B46FB70FB7803F072
:103C40000F037A681279934201D901234FE097F963
:103C50000330002B0FDAFB7803F00F021346DB0072
:103C600013449B0010337A6813440433FB60FB68F1
:103C700001225A700DE0FA781346DB0013449B00D2
:103C800003F514737A6813440433FB60FB68002265
:103C90005A70FB6801229A70FB7803F00F03DAB2C6
:103CA000FB681A707B6893F89434012B01D10223CE
:103CB0001DE07B68012283F894247B681B68F96807
:103CC000184602F09FFDFB7803F00F03002B09D18B
:103CD0007B6818687B6899797B6803F29C431A4675
:103CE00002F090FF7B68002283F89424002318469A
:103CF0001037BD4680BD80B584B000AF78600B46FC
:103D0000FB70FB7803F00F037A681279934201D9B4
:103D1000012342E097F90330002B0FDAFB7803F020
:103D20000F021346DB0013449B0010337A681344E0
:103D30000433FB60FB6801225A700FE0FB7803F04C
:103D40000F021346DB0013449B0003F514737A68DB
:103D500013440433FB60FB6800225A70FB680022A6
:103D60009A70FB7803F00F03DAB2FB681A707B6875
:103D700093F89434012B01D102230EE07B680122D9
:103D800083F894247B681B68F968184602F0A8FD44
:103D90007B68002283F89424002318461037BD4620
:103DA00080BD80B584B000AF78600B46FB7097F99A
:103DB0000330002B0CDAFB7803F00F021346DB0014
:103DC00013449B0010337A6813440433FB600CE007
:103DD000FB7803F00F021346DB0013449B0003F54E
:103DE00014737A6813440433FB607B681B68F968BA
:103DF000184602F0C7FB0346FB72FB7A18461037E1
:103E0000BD4680BD80B58AB002AF786039607B68FE
:103E10001B687B617B693B613A681346DB00134496
:103E20009B0010337A6813440433FB60FB685A69C3
:103E3000FB681B699A4201D901236BE0FB681A6990
:103E4000FB685B69D31AFB61FB689B68FA699A425D
:103E500002D9FB689B68FB61FB6903339B08BB616C
:103E60002AE0FB681A69FB685B69D31AFB61FB688F
:103E70009B68FA699A4202D9FB689B68FB61FB69FF
:103E800003339B08BB61FB68D9683B68DAB2FB6906
:103E900098B27B689B7900930346786902F01CFC1A
:103EA000FB68DA68FB691A44FB68DA60FB685A69E8
:103EB000FB691A44FB685A613B685A013B69134429
:103EC00003F510639B699BB2BA699A4209D8FB68F3
:103ED0005A69FB681B699A4203D2FB681B69002B75
:103EE000BFD1FB681A69FB685B699A4211D83B68CD
:103EF00003F00F03012202FA03F3BB603B6903F5F1
:103F000000635A6BBB68DB43396901F500611340FC
:103F10004B63002318462037BD4680BD80B588B06E
:103F200000AF786039607B681B68FB61FB69BB612F
:103F3000FB693C3304331B687B613B685A01BB69F6
:103F4000134403F530639B683B617B689B79012BCD
:103F50007BD13B6903F00803002B15D07B69614AD4
:103F6000934240F2B9803B6903F40043002B00F018
:103F7000B3803B685A01BB69134403F530631A46AA
:103F80004FF400439360A7E03B6903F02003002B4C
:103F900009D03B685A01BB69134403F530631A46E4
:103FA0002023936098E03B6903F02803002B40F046
:103FB00093807B694B4A93420FD93B6903F40043DA
:103FC000002B0AD03B685A01BB69134403F53063E8
:103FD0001A464FF4004393607EE03A681346DB00D4
:103FE00013449B0003F514737A6813440433FB6095
:103FF000FB681A6A3B685901BB690B4403F53063DF
:104000001B69C3F31203D21AFB685A613B68002B89
:1040100014D1FB681B69002B09D17B6818687B6889
:1040200003F29C431A46012102F0ECFD06E0FB6816
:10403000DA68FB685B691A44FB68DA603B68DBB2EC
:104040001946786809F092FF46E07B69264A934258
:1040500024D13B6903F40043002B0AD03B685A018A
:10406000BB69134403F530631A464FF40043936071
:1040700032E03B6903F02003002B08D03B685A0173
:10408000BB69134403F530631A46202393603B68F1
:10409000DBB21946786809F069FF1DE03B68002B28
:1040A00014D179683A681346DB0013449B000B4433
:1040B00003F519731B68002B08D17B6818687B68AF
:1040C00003F29C431A46002102F09CFD3B68DBB2E0
:1040D0001946786809F04AFF002318462037BD4684
:1040E00080BD00BF0A30544F0A31544F80B586B0AE
:1040F00000AF786039607B681B687B617B693B61DE
:104100007B693C3304331B68FB603B685A013B69A5
:10411000134403F530639B68BB60FB68154A934208
:104120000ED9BB6803F40043002B09D03B685A0149
:104130003B69134403F530631A464FF40043936020
:10414000786809F001FFFB680A4A93420CD97B6842
:104150009B79012B08D17B6818687B6803F29C432C
:104160001A46012102F04EFD002318461837BD46BD
:1041700080BD00BF0A30544F80B485B000AF786076
:104180000B46FB7013463B807B681B685B6ABB6019
:10419000FB78002B07D13B8819047B681B68BA6841
:1041A0000A439A6228E07B681B689B6A1B0CBA680A
:1041B0001344BB600023FB730DE07B681A68FB7B34
:1041C00040339B0013445B681B0CBA681344BB600C
:1041D000FB7B0133FB73FA7BFB78013B9A42ECD308
:1041E0003B8818047B681968FB78013BBA68024376
:1041F00040339B000B445A60002318461437BD46D9
:104200005DF8047B704780B483B000AF78600B46E4
:104210007B807B681B687A885A62002318460C37BB
:10422000BD465DF8047B704780B483B000AF786012
:104230000B46FB7000BF0C37BD465DF8047B704732
:1042400080B586B000AF78607B68002B01D1012378
:1042500067E27B681B6803F00103002B75D0884B75
:104260009B6803F00C03042B0CD0854B9B6803F078
:104270000C03082B12D1824B5B6803F48003B3F567
:10428000800F0BD17E4B1B6803F40033002B5BD0F7
:104290007B685B68002B57D1012342E27B685B6837
:1042A000B3F5803F06D1764B1B68754A43F48033E3
:1042B00013601DE07B685B68B3F5A02F0CD1704BD9
:1042C0001B686F4A43F4802313606D4B1B686C4A74
:1042D00043F4803313600BE0694B1B68684A23F496
:1042E00080331360664B1B68654A23F48023136098
:1042F0007B685B68002B13D0FDF7A4FB386108E0F6
:10430000FDF7A0FB02463B69D31A642B01D90323B6
:1043100007E25B4B1B6803F40033002BF0D014E082
:10432000FDF790FB386108E0FDF78CFB02463B6926
:10433000D31A642B01D90323F3E1514B1B6803F417
:104340000033002BF0D100E000BF7B681B6803F056
:104350000203002B63D04A4B9B6803F00C03002B35
:104360000BD0474B9B6803F00C03082B1CD1444B2C
:104370005B6803F48003002B16D1414B1B6803F0EC
:104380000203002B05D07B68DB68012B01D00123E1
:10439000C7E13B4B1B6823F0F8027B681B69DB001D
:1043A000374913430B603AE07B68DB68002B20D071
:1043B000344B01221A60FDF745FB386108E0FDF738
:1043C00041FB02463B69D31A022B01D90323A8E122
:1043D0002B4B1B6803F00203002BF0D0284B1B680B
:1043E00023F0F8027B681B69DB00254913430B604F
:1043F00015E0244B00221A60FDF724FB386108E029
:10440000FDF720FB02463B69D31A022B01D9032397
:1044100087E11B4B1B6803F00203002BF0D17B6884
:104420001B6803F00803002B36D07B685B69002B08
:1044300016D0154B01221A60FDF704FB386108E025
:10444000FDF700FB02463B69D31A022B01D9032377
:1044500067E10B4B5B6F03F00203002BF0D01BE016
:10446000094B00221A60FDF7EDFA38610EE0FDF706
:10447000E9FA02463B69D31A022B07D9032350E11C
:104480000038024000004742800E4742884B5B6F75
:1044900003F00203002BEAD17B681B6803F00403DE
:1044A000002B00F097800023FB75814B1B6C03F001
:1044B0008053002B0FD10023BB607D4B1B6C7C4ACB
:1044C00043F0805313647A4B1B6C03F08053BB6042
:1044D000BB680123FB75774B1B6803F48073002BCB
:1044E00018D1744B1B68734A43F480731360FDF753
:1044F000A9FA386108E0FDF7A5FA02463B69D31A2C
:10450000022B01D903230CE16A4B1B6803F480736F
:10451000002BF0D07B689B68012B06D1644B1B6F8E
:10452000634A43F0010313671CE07B689B68052B1B
:104530000CD15F4B1B6F5E4A43F0040313675C4B67
:104540001B6F5B4A43F0010313670BE0584B1B6F73
:10455000574A23F001031367554B1B6F544A23F04E
:10456000040313677B689B68002B15D0FDF76AFA7C
:1045700038610AE0FDF766FA02463B69D31A41F258
:104580008832934201D90323CBE0494B1B6F03F0E0
:104590000203002BEED014E0FDF754FA38610AE074
:1045A000FDF750FA02463B69D31A41F28832934232
:1045B00001D90323B5E03E4B1B6F03F00203002B30
:1045C000EED1FB7D012B05D1394B1B6C384A23F012
:1045D000805313647B689B69002B00F0A180344BEF
:1045E0009B6803F00C03082B5CD07B689B69022B53
:1045F00041D1314B00221A60FDF724FA386108E0FE
:10460000FDF720FA02463B69D31A022B01D9032396
:1046100087E0274B1B6803F00073002BF0D17B6809
:10462000DA697B681B6A1A437B685B6A9B011A43E1
:104630007B689B6A5B08013B1B041A437B68DB6A4F
:104640001B061B4913434B601B4B01221A60FDF7ED
:10465000F9F9386108E0FDF7F5F902463B69D31A2C
:10466000022B01D903235CE0114B1B6803F000739C
:10467000002BF0D054E0104B00221A60FDF7E2F955
:10468000386108E0FDF7DEF902463B69D31A022BD8
:1046900001D9032345E0064B1B6803F00073002B90
:1046A000F0D13DE07B689B69012B07D1012338E005
:1046B0000038024000700040600047421B4B5B68BE
:1046C000FB607B689B69012B28D0FB6803F48002A8
:1046D0007B68DB699A4221D1FB6803F03F027B686B
:1046E0001B6A9A421AD1FA6847F6C07313407A6877
:1046F000526A9201934211D1FB6803F440327B6805
:104700009B6A5B08013B1B049A4207D1FB6803F0DC
:1047100070627B68DB6A1B069A4201D0012300E0CD
:10472000002318461837BD4680BD00BF0038024040
:1047300080B584B000AF786039607B68002B01D110
:104740000123CCE0684B1B6803F007033A689A42E8
:104750000CD9654B3A68D2B21A70634B1B6803F0F0
:1047600007033A689A4201D00123B8E07B681B68CE
:1047700003F00203002B20D07B681B6803F00403C6
:10478000002B05D0594B9B68584A43F4E053936083
:104790007B681B6803F00803002B05D0534B9B6814
:1047A000524A43F460439360504B9B6823F0F002FD
:1047B0007B689B684D4913438B607B681B6803F0E3
:1047C0000103002B44D07B685B68012B07D1474B6A
:1047D0001B6803F40033002B19D101237FE07B68B1
:1047E0005B68022B03D07B685B68032B07D13F4BD0
:1047F0001B6803F00073002B09D101236FE03B4BD2
:104800001B6803F00203002B01D1012367E0374B43
:104810009B6823F003027B685B68344913438B6019
:10482000FDF710F9F8600AE0FDF70CF90246FB68A5
:10483000D31A41F28832934201D903234FE02B4B24
:104840009B6803F00C027B685B689B009A42EBD18B
:10485000254B1B6803F007033A689A420CD2224B9F
:104860003A68D2B21A70204B1B6803F007033A680B
:104870009A4201D0012332E07B681B6803F00403F5
:10488000002B08D0194B9B6823F4E0527B68DB684F
:10489000164913438B607B681B6803F00803002BE9
:1048A00009D0124B9B6823F460427B681B69DB00D4
:1048B0000E4913438B6000F021F802460B4B9B68B6
:1048C0001B0903F00F030A49CB5C22FA03F3094AE0
:1048D0001360094B1B681846FDF770F80023184653
:1048E0001037BD4680BD00BF003C0240003802408A
:1048F0002C1B010800000020040000202DE9B04F0F
:1049000090B000AF00237B630023FB6300233B6375
:104910000023BB63594B9B6803F00C03082B0DD09D
:10492000082B00F2A180002B02D0042B03D09BE0C7
:10493000534BBB639BE0534BBB6398E04F4B5B68AF
:1049400003F03F037B634D4B5B6803F48003002B54
:1049500028D04A4B5B689B0900223B627A623B6A23
:10496000C3F308000021474B03FB01F2002300FBC7
:1049700003F31344434AA0FB0212FA620A46BA62E6
:10498000FA6A1344FB627B6B0022BB61FA61D7E9D0
:104990000623D7E90A01FCF757F902460B461346EE
:1049A000FB6353E0354B5B689B0900223B617A61F6
:1049B0003B69C3F3080A4FF0000B52465B464FF0C9
:1049C00000004FF00001590141EAD2615001024656
:1049D0000B46B2EB0A0863EB0B094FF000024FF0F5
:1049E00000034FEA891343EA98634FEA8812B2EB57
:1049F000080463EB09054FF000024FF00003EB00E1
:104A000043EA5473E20014461D4614EB0A033B606C
:104A100045EB0B037B604FF000024FF00003D7E93A
:104A2000004529468B02214643EA915321468A02DA
:104A3000104619467B6B0022BB60FA60D7E902235F
:104A4000FCF702F902460B461346FB630B4B5B680F
:104A50001B0C03F0030301335B003B63FA6B3B6BFE
:104A6000B2FBF3F3BB6302E0054BBB6300BFBB6B60
:104A700018464037BD46BDE8B08F00BF0038024041
:104A80000024F40040787D0180B400AF034B1B6824
:104A90001846BD465DF8047B704700BF000000204B
:104AA00080B500AFFFF7F0FF0246054B9B689B0AFD
:104AB00003F007030349CB5C22FA03F3184680BDD9
:104AC000003802403C1B010880B500AFFFF7DCFF57
:104AD0000246054B9B685B0B03F007030349CB5C65
:104AE00022FA03F3184680BD003802403C1B01083F
:104AF00080B582B000AF78607B68002B01D10123C4
:104B00007BE07B685B6A002B08D17B685B68B3F550
:104B1000827F09D07B680022DA6105E07B68002291
:104B20001A617B6800225A617B6800229A627B6866
:104B300093F85130DBB2002B06D17B68002283F85A
:104B400050207868FCF728FD7B68022283F851200A
:104B50007B681B681A687B681B6822F040021A6039
:104B60007B685B6803F482727B689B6803F4044390
:104B70001A437B68DB6803F400631A437B681B6994
:104B800003F002031A437B685B6903F001031A43D5
:104B90007B689B6903F400731A437B68DB6903F04D
:104BA00038031A437B681B6A03F0800342EA03015F
:104BB0007B689B6A03F400527B681B680A431A6097
:104BC0007B689B691B0C03F004017B685B6A03F044
:104BD00010027B681B680A435A607B681B68DA69AD
:104BE0007B681B6822F40062DA617B6800225A65E8
:104BF0007B68012283F85120002318460837BD4600
:104C000080BD80B58AB000AFF860B9607A607B8003
:104C100001237B62FCF716FF3862FB6893F8513082
:104C2000FB77FB685B68BB617B88FB82FB7F012BAA
:104C30000CD0BB69B3F5827F06D1FB689B68002B63
:104C400002D1FB7F042B01D002237FE1BB68002B44
:104C500005D07B68002B02D07B88002B01D101237B
:104C600074E1FB6893F85030012B01D102236DE110
:104C7000FB68012283F85020FB6893F85130DBB2C7
:104C8000042B03D0FB68052283F85120FB68002227
:104C90005A65FB687A689A63FB687A88DA87FB68EA
:104CA0007A889A87FB68BA681A63FB687A88DA861A
:104CB000FB687A889A86FB6800221A64FB680022E7
:104CC0005A64FB681B681B6803F04003402B07D045
:104CD000FB681B681A68FB681B6842F040021A6098
:104CE000FB68DB68B3F5006F7ED1FB685B68002B67
:104CF00002D0FB8A012B6CD1FB681B6B1A88FB6806
:104D00001B68DA60FB681B6B9A1CFB681A63FB6804
:104D1000DB8E9BB2013B9AB2FB68DA8659E0FB68F6
:104D20001B689B6803F00203022B1BD1FB68DB8E20
:104D30009BB2002B16D07B6A012B13D1FB681B6B37
:104D40001A88FB681B68DA60FB681B6B9A1CFB689F
:104D50001A63FB68DB8E9BB2013B9AB2FB68DA8672
:104D600000237B62FB681B689B6803F00103012B37
:104D700019D1FB68DB8F9BB2002B14D0FB681B683A
:104D8000DA68FB689B6B92B21A80FB689B6B9A1C7B
:104D9000FB689A63FB68DB8F9BB2013B9AB2FB68AE
:104DA000DA8701237B62FCF74DFE02463B6AD31A89
:104DB0003A6B9A420DD83B6BB3F1FF3F09D0FB68C9
:104DC000012283F85120FB68002283F8502003233E
:104DD000BCE0FB68DB8E9BB2002BA0D1FB68DB8FB5
:104DE0009BB2002B9BD182E0FB685B68002B02D05A
:104DF000FB8A012B71D1FB681A6BFB681B680C33B3
:104E000012781A70FB681B6B5A1CFB681A63FB68EC
:104E1000DB8E9BB2013B9AB2FB68DA865DE0FB68F1
:104E20001B689B6803F00203022B1CD1FB68DB8E1E
:104E30009BB2002B17D07B6A012B14D1FB681A6B35
:104E4000FB681B680C3312781A70FB681B6B5A1CCA
:104E5000FB681A63FB68DB8E9BB2013B9AB2FB686E
:104E6000DA8600237B62FB681B689B6803F0010302
:104E7000012B19D1FB68DB8F9BB2002B14D0FB6890
:104E80001B68DA68FB689B6BD2B21A70FB689B6B7D
:104E90005A1CFB689A63FB68DB8F9BB2013B9AB29A
:104EA000FB68DA8701237B62FCF7CCFD02463B6A94
:104EB000D31A3A6B9A4203D83B6BB3F1FF3F02D14E
:104EC0003B6B002B09D1FB68012283F85120FB6862
:104ED000002283F85020032338E0FB68DB8E9BB26E
:104EE000002B9CD1FB68DB8F9BB2002B97D13A6AD9
:104EF000396BF86800F0B6F80346002B08D0FB6861
:104F000020225A65FB68002283F8502001231DE00F
:104F1000FB689B68002B0AD100233B61FB681B6880
:104F2000DB683B61FB681B689B683B613B69FB6816
:104F3000012283F85120FB68002283F85020FB688F
:104F40005B6D002B01D0012300E0002318462837B9
:104F5000BD4680BD80B588B000AFF860B9603B60E9
:104F60001346FB71FCF76EFD0246BB6A9B1A3A685A
:104F70001344FB61FCF766FDB861394B1B685B01AC
:104F80001B0DFA6902FB03F37B6155E03B68B3F14B
:104F9000FF3F51D0FCF756FD0246BB69D31AFA69B0
:104FA0009A4202D9FB69002B3DD1FB681B685A6805
:104FB000FB681B6822F0E0025A60FB685B68B3F58F
:104FC000827F11D1FB689B68B3F5004F04D0FB686A
:104FD0009B68B3F5806F07D1FB681B681A68FB6894
:104FE0001B6822F040021A60FB689B6AB3F5005F01
:104FF0000FD1FB681B681A68FB681B6822F400521B
:105000001A60FB681B681A68FB681B6842F4005250
:105010001A60FB68012283F85120FB68002283F8A4
:105020005020032318E07B69002B02D10023FB6191
:1050300002E07B69013B7B61FB681B689A68BB6887
:105040001340BA689A420CBF01230023DBB21A4610
:10505000FB799A429AD1002318462037BD4680BD7D
:105060000000002080B588B002AFF860B9607A60B7
:105070007B680093BB6801220221F868FFF76AFF92
:105080000346002B07D0FB685B6D43F02002FB68F2
:105090005A65032332E01B4B1B681B4AA2FB032308
:1050A0005B0D4FF47A7202FB03F37B61FB685B6874
:1050B000B3F5827F12D17B680093BB680022802108
:1050C000F868FFF747FF0346002B16D0FB685B6DBF
:1050D00043F02002FB685A6503230FE07B69002B35
:1050E0000AD07B69013B7B61FB681B689B6803F00E
:1050F0008003802BF2D000E000BF00231846183751
:10510000BD4680BD00000020819F5E1680B582B044
:1051100000AF78607B68002B01D1012342E07B68FF
:1051200093F84130DBB2002B06D17B68002283F874
:1051300040207868FCF778FA7B68242283F84120C5
:105140007B681B68DA687B681B6822F40052DA60AF
:10515000786800F02BF87B681B681A697B681B680D
:1051600022F490421A617B681B685A697B681B684D
:1051700022F02A025A617B681B68DA687B681B6828
:1051800042F40052DA607B6800225A647B68202275
:1051900083F841207B68202283F842207B6800222C
:1051A0005A63002318460837BD4680BD2DE9B04F2D
:1051B000C0B000AFC7F8F400D7F8F4301B681B6923
:1051C00023F44050D7F8F430D968D7F8F4301A688F
:1051D00040EA01031361D7F8F4309A68D7F8F43045
:1051E0001B691A43D7F8F4305B691A43D7F8F430D7
:1051F000DB691343C7F8F830D7F8F4301B68DB6875
:1052000023F4164121F00C01D7F8F4301A68D7F8CE
:10521000F8300B43D360D7F8F4301B685B6923F494
:105220004070D7F8F4309969D7F8F4301A6840EA3A
:1052300001035361D7F8F4301A688F4B9A4205D0B6
:10524000D7F8F4301A688D4B9A4204D1FFF73CFC32
:10525000C7F8FC0003E0FFF723FCC7F8FC00D7F811
:10526000F430DB69B3F5004F40F00C81D7F8FC3027
:105270000022C7F8E830C7F8EC20D7E93A452246C3
:105280002B469118B9655B41FB65D7E9162321468A
:1052900012EB0108294643EB01094FF000024FF0E1
:1052A00000034FEAC90343EA58734FEAC802904625
:1052B0009946234618EB0303C7F8E0302B4649EB29
:1052C0000303C7F8E430D7F8F4305B680022C7F86E
:1052D000D830C7F8DC20D7E936120B46DB183B651F
:1052E000134642EB03037B65D7E91423D7E9380162
:1052F000FBF7AAFC02460B46614BA3FB02235B09AA
:105300001C01D7F8FC300022C7F8D030C7F8D420F1
:10531000D7E9348942464B469118B9645B41FB6436
:10532000D7E91223414612EB010A494643EB010B30
:105330004FF000024FF000034FEACB0343EA5A73E9
:105340004FEACA0292469B4643461AEB0303C7F84C
:10535000C8304B464BEB0303C7F8CC30D7F8F430DA
:105360005B680022C7F8C030C7F8C420D7E9301204
:105370000B46DB183B64134642EB03037B64D7E91F
:105380001023D7E93201FBF75FFC02460B461146BA
:105390003B4BA3FB01235B09642202FB03F3CB1A03
:1053A000DB0003F13202364BA3FB02235B095B00F7
:1053B00003F4F8731C44D7F8FC300022C7F8B83067
:1053C000C7F8BC20D7E92E8942464B469118B963ED
:1053D0005B41FB63D7E90E234146511839634946C7
:1053E0004B417B634FF000024FF00003D7E90CAB59
:1053F0005946CB00514643EA51735146CA00104604
:105400001946034642469B18C7F8B0304B460A4639
:1054100042EB0303C7F8B430D7F8F4305B680022DE
:10542000C7F8A830C7F8AC20D7E92A120B46DB181A
:10543000BB62134642EB0303FB62D7E90A23D7E9B9
:105440002C01FBF701FC02460B460D4BA3FB02139C
:105450005B09642101FB03F3D31ADB003233084AF2
:10546000A2FB03235B0903F00702D7F8F4301B68A3
:1054700022449A6006E100BF001001400014014080
:105480001F85EB51D7F8FC300022C7F8A030C7F8D1
:10549000A420D7E9288942464B46911839625B41DE
:1054A0007B62D7E9082341465418494643EB01057E
:1054B0004FF000024FF00003EB0043EA5473E200A8
:1054C00014461D464346E318C7F898304B4645EB53
:1054D0000303C7F89C30D7F8F4305B680022C7F8A4
:1054E0009030C7F894204FF000024FF00003D7E946
:1054F000244529468B00214643EA917321468A00C0
:10550000D7E92601FBF7A0FB02460B46604BA3FB45
:1055100002235B091C01D7F8FC300022C7F8883051
:10552000C7F88C20D7E9228942464B469118B961C9
:105530005B41FB61D7E90623414651183961494671
:105540004B417B614FF000024FF00003D7E904AB01
:105550005946CB00514643EA51735146CA001046A2
:105560001946034642469B18C7F880304B460A4608
:1055700042EB0303C7F88430D7F8F4305B680022AD
:10558000BB67FA674FF000024FF00003D7E91E89AE
:1055900049468B00414643EA917341468A00D7E968
:1055A0002001FBF751FB02460B461146384BA3FB8B
:1055B00001235B09642202FB03F3CB1A1B01323384
:1055C000334AA2FB03235B0903F0F0031C44D7F822
:1055D000FC3000223B677A67D7E91C8942464B467C
:1055E0009118B9605B41FB60D7E90223414651182D
:1055F000396049464B417B604FF000024FF0000399
:10560000D7E900AB5946CB00514643EA51735146A6
:10561000CA0010461946034642469B18BB664B46D5
:105620000A4642EB0303FB66D7F8F4305B680022BE
:105630003B667A664FF000024FF00003D7E9188905
:1056400049468B00414643EA917341468A00D7E9B7
:105650001A01FBF7F9FA02460B460D4BA3FB0213A6
:105660005B09642101FB03F3D31A1B013233084A9F
:10567000A2FB03235B0903F00F02D7F8F4301B6889
:1056800022449A6000BF07F58077BD46BDE8B08F21
:105690001F85EB5184B080B584B000AF786007F10E
:1056A0001C0080E80E0097F82130012B23D17B6885
:1056B0009B6B23F480327B689A637B68DB6823F4FE
:1056C000840323F040037A68D3607B68DB6823F4AB
:1056D00040127B68DA6097F82830012B05D17B688F
:1056E000DB6843F480127B68DA60786801F0E8FADE
:1056F0000346FB731BE07B68DB6843F040027B687A
:10570000DA60786801F0DCFA0346FB7397F825301D
:10571000002B06D17B689B6B43F480327B689A63D5
:1057200005E07B689B6B23F480327B689A63BB7FC8
:10573000012B0BD17B689B6843F006027B689A6063
:105740007B689B6843F020027B689A60FB7B18466D
:105750001037BD46BDE8804004B0704780B487B0C4
:1057600000AFF860B9601346FB71FB79022B65D17D
:10577000BB68414A934206D9BB68404A934202D271
:105780000F237B6162E0BB683C4A934206D3BB684F
:105790003B4A934202D20E237B6157E0BB68384AF2
:1057A000934206D3BB68374A934202D20D237B61F2
:1057B0004CE0BB68334A934206D3BB68324A9342FB
:1057C00002D80C237B6141E0BB682F4A934206D983
:1057D000BB682E4A934202D80B237B6136E0BB683C
:1057E0002A4A934206D9BB68294A934202D80A231F
:1057F0007B612BE0BB68264A934206D9BB68254AE9
:10580000934202D209237B6120E0BB68214A934284
:1058100006D3BB68204A934202D808237B6115E077
:10582000BB681D4A934206D9BB681C4A934202D208
:1058300007237B610AE006237B6107E0FB79002BED
:1058400002D109237B6101E009237B61FB68DB68EE
:1058500023F47052FB68DA60FB68DA687B699B02AC
:1058600003F470531A43FB68DA60002318461C37B0
:10587000BD465DF8047B7047BFACD800C0E1E400D2
:105880000024F400807306019F491A01FF2C3101A6
:105890003FA44C0100366E011FABA6010048E80191
:1058A00080B483B000AF78607B689B6843F00102EE
:1058B0007B689A60002318460C37BD465DF8047B70
:1058C000704780B483B000AF78607B689B6823F03A
:1058D00001027B689A60002318460C37BD465DF8CC
:1058E000047B704780B584B000AF78600B46FB70D6
:1058F0000023FB607B68DB6823F0C0427B68DA60D2
:10590000FB78012B15D17B68DB6843F000527B6884
:10591000DA600A20FCF7A2F8FB680A33FB607868BB
:1059200001F03FF90346012B1ED0FB68C72BF0D9CD
:105930001AE0FB78002B15D17B68DB6843F08042CE
:105940007B68DA600A20FCF789F8FB680A33FB60A1
:10595000786801F026F90346002B05D0FB68C72BB9
:10596000F0D901E0012305E0FB68C82B01D1012338
:1059700000E0002318461037BD4680BD84B080B5D6
:1059800086B000AF786007F1240080E80E000023A5
:10599000FB757B68FB6000233B6109E07A683B692B
:1059A00040339B00134400225A603B6901333B6142
:1059B0003B690E2BF2D997F82E30002B1CD1FB68D7
:1059C00003F500635B68FA6802F5006243F00203C6
:1059D00053607B689B6B43F400127B689A637B681F
:1059E0009B6B23F400227B689A637B689B6B23F498
:1059F00080227B689A630BE07B689B6B23F4001228
:105A00007B689A637B689B6B43F400227B689A6394
:105A1000FB6803F560631A460023136097F829308A
:105A2000012B0DD197F82730002B04D10021786885
:105A300000F068F908E00121786800F063F903E0FC
:105A40000321786800F05EF91021786800F0FAF818
:105A50000346002B01D00123FB75786800F024F980
:105A60000346002B01D00123FB75FB6803F500639F
:105A70001A4600231361FB6803F500631A460023EE
:105A80005361FB6803F500631A460023D3610023CA
:105A90003B6143E03B695A01FB68134403F5106323
:105AA0001B6803F00043B3F1004F18D13B69002B92
:105AB0000AD13B695A01FB68134403F510631A4687
:105AC0004FF00063136013E03B695A01FB68134415
:105AD00003F510631A464FF09043136008E03B69EA
